:020000040800F2
:1000000048080020C9010008D1010008D3010008F8
:10001000D5010008D7010008D90100080000000040
:10002000000000000000000000000000DB010008EC
:10003000DD01000800000000DF010008E101000808
:10004000E3010008E3010008E3010008911A000839
:10005000E3010008E3010008E30100086B1B00084E
:10006000E3010008B11B0008E3010008E3010008F8
:10007000E3010008E3010008E3010008E3010008D0
:10008000E3010008E3010008C71B0008E3010008C2
:10009000811F00088F1F0008E3010008E30100082A
:1000A000E3010008E3010008E3010008E3010008A0
:1000B000D91C00083D1D0008E3010008E301000809
:1000C000E3010008E3010008E3010008E301000880
:1000D000E3010008E3010008E3010008E301000870
:1000E000E3010008771F0008E301000800F002F8B0
:1000F00000F05AF80AA090E8000C82448344AAF168
:100100000107DA4501D100F04FF8AFF2090EBAE865
:100110000F0013F0010F18BFFB1A43F0010318473B
:10012000A0950000C09500000A444FF0000C10F8A4
:10013000013B13F0070408BF10F8014B1D1108BF65
:1001400010F8015B641E05D010F8016B641E01F805
:10015000016BF9D113F0080F1EBF10F8014BAD1C55
:100160000C1B09D16D1E58BF01F801CBFAD505E073
:1001700014F8016B01F8016B6D1EF9D59142D6D3CD
:10018000704700000023002400250026103A28BFF5
:1001900078C1FBD8520728BF30C148BF0B607047F9
:1001A0001FB51FBD10B510BD08F0D1FF1146FFF7F8
:1001B000F7FF00F078FD08F0EFFF03B4FFF7F2FF60
:1001C00003BC08F0F3FF00000948804709480047D6
:1001D000FEE7FEE7FEE7FEE7FEE7FEE7FEE7FEE7F7
:1001E000FEE7FEE704480549054A064B7047000054
:1001F000E5020008ED000008480200204808002041
:1002000048040020480400200CB500200190009014
:100210006B48006840F480306949086000BF684856
:10022000006800F4003000900198401C0190009894
:1002300018B90198B0F5A06FF1D16148006810F4C9
:10024000003F02D00120009001E0002000900098C3
:10025000012842D15B48006840F01000594908600D
:100260000846006820F0030008600846006840F077
:10027000020008605248406851494860084640689A
:1002800048600846406840F480604860084640681E
:1002900020F47C1048600846406840F4E81048604C
:1002A0000846006840F08070086000BF444800685D
:1002B00010F0007FFAD04248406820F00300404927
:1002C00048600846406840F00200486000BF3C4873
:1002D000406800F00C000828F9D10CBD10B5FFF7FC
:1002E00093FF10BD10B53648006840F00100344956
:1002F000086008464068344908403149486008466B
:100300000068324908402E4908600846006820F419
:10031000802008600846406820F4FE0048604FF4E2
:100320001F008860FFF7DAFF4FF00060284908607F
:1003300010BD10B5002100200022214B5B6803F0A6
:100340000C0121B1042906D0082928D107E0214B4E
:10035000214C236027E01F4B1F4C236023E0184BE8
:100360005B6803F47010164B5B6803F48032022361
:1003700003EB904022B9194B4343174C23600DE027
:100380000F4B5B6813F4003F04D0144B4343124CF3
:10039000236003E00F4B43430F4C236003E00D4BFE
:1003A0000D4C236000BF00BF054B5B68C3F3031314
:1003B0000B4CE15C084B1B68CB40074C236010BD25
:1003C00000100240002002400000FFF8FFFFF6FE90
:1003D00008ED00E000127A000000002000093D0056
:1003E0000400002010B5002807DA0A07140EFE4AA0
:1003F00000F00F031B1FD45403E00A07130EFB4A3F
:10040000135410BD2DE9F041012000210025F84EC4
:100410003688DFF8DCC3ACF1040CBCF800C046EA57
:100420000C46DFF8D0C396FBFCF80CFB186448F6CA
:10043000A04694FBF6F6F6B246F03006DFF8B8C3F5
:100440008CF800604FF4616694FBF6F64FF00A0CEE
:1004500096FBFCF80CFB1866F6B246F03006DFF8A7
:1004600098C38CF801604FF4616694FBF6FC06FBC0
:100470001C474FF4167697FBF6F6F6B246F03006B8
:10048000DFF874C38CF803603C2697FBF6F64FF058
:100490000A0C96FBFCF80CFB1866F6B246F0300628
:1004A000DFF854C38CF80460D14E3688DFF840C3BF
:1004B000ACF1040CBCF800C046EA0C46DFF834C3CB
:1004C00096FBFCF630440FE0A0F5B770491C002203
:1004D00007E0B0F5B77F00DA05E0A0F26D10491C27
:1004E000521C032AF5DB00BFB0F5B77FECDA4FEA08
:1004F000E17C01EB9C7C4FEAAC0CB1EB8C0C01D0A5
:10050000002300E0012300220AE06D1C03EB8306B8
:1005100006EBC306DFF8E4C26644B65C801B521CDF
:1005200003EB830606EBC306DFF8D0C26644B65C75
:100530008642EADB0A2691FBF6F6F6B246F0300C6C
:10054000AD4E86F810C00A2691FBF6FC06FB1C1681
:10055000F6B246F0300CA84E86F811C00A2695FB7C
:10056000F6F6F6B246F0300CA34E86F80BC00A261B
:1005700095FBF6FC06FB1C56F6B246F0300C9E4E80
:1005800086F80CC00A2690FBF6F6F6B246F0300666
:10059000DFF864C28CF808600A2690FBF6FC06FBC4
:1005A0001C06F6B246F0300C934E86F809C0BDE842
:1005B000F08170B5012000210024914D2D88904ECE
:1005C000361F368845EA06458A4E95FBF6F52844DF
:1005D0000FE0A0F5B770491C002207E0B0F5B77F27
:1005E00000DA05E0A0F26D10491C521C032AF5DB6D
:1005F00000BFB0F5B77FECDACE1701EB9676B610F8
:10060000B1EB860601D0002300E00123002209E0BF
:10061000641C03EB830505EBC305784E3544AD5CE4
:10062000401B521C03EB830505EBC305734E354499
:10063000AD5C8542ECDB0A2591FBF5F5EDB245F0AA
:100640003006704D2E740A2591FBF5F605FB161544
:10065000EDB245F030066B4D6E740A2594FBF5F54E
:10066000EDB245F03006674DEE720A2594FBF5F6C3
:1006700005FB1645EDB245F03006624D2E730A2596
:1006800090FBF5F5EDB245F030055E4E35720A256A
:1006900090FBF5F605FB1605EDB245F03006594D19
:1006A0006E7270BD10B54FF4004004F04EF8012199
:1006B000480204F07AF90121042004F09FF9012195
:1006C000084604F047F901204F4908800020C8700F
:1006D0004E4803F0D7F830204B4908800020C870FE
:1006E0004B4803F0CFF80120474908800020C8702C
:1006F000484803F0C7F802204749C86000208860D6
:100700008862464848604FF48060C8618020486134
:100710002020086242480860801588610020086136
:100720004862404802F089FC01213E4802F054FD35
:1007300000203D49C880488042F27470888041F6AC
:100740001F400880394804F061FB70203849088058
:100750000020088142F21070C88001204880334890
:1007600004F0CAFE0121314805F0A8FB0020314900
:1007700048710120087100200860C8604FF42020F3
:1007800088600220087426484C3801F04EFC012293
:100790004FF4087122484C3801F05BFD01212048DC
:1007A0004C3801F033FD012002F0A1FA07230122A9
:1007B00000211B484C3801F09CFE07230222102127
:1007C00017484C3801F095FE012115484C3801F0CE
:1007D0005EFF012112484C3801F0F2FC10484C3801
:1007E00001F09CFD00BF27E018ED00E000E400E010
:1007F000086C00408051010052010020EC000020F4
:100800001C280040400100201A0000200008014080
:1008100000100140000C0140940100200E01002056
:100820004C240140080002407801002000080040EC
:100830008201002064010020FE484C3801F084FD54
:100840000028D0D1002406E02E20FB4951F82410C6
:100850004870601CC4B2022CF6DB10BD10B5F7481E
:10086000C06940F0C050F549C861012003F0CDFCDB
:100870004FF0E020006920F004004FF0E021086113
:100880000846006940F001000861EC48006A00F089
:10089000020002287DD0E948006A40F48030E74930
:1008A00008620846006A20F4803008620846006A40
:1008B00040F001000862E2484FF0E021486100206A
:1008C000886100BF4FF0E020006910F4803F04D140
:1008D000DA48006A10F0020FF4D0D848006A10F02D
:1008E000020F33D0D548006A40F48070D3490862C3
:1008F0000846006A40F40040086200BFD148008802
:1009000000F020002028F9D1CE48008840F01000E7
:10091000CC49088047F6FF70CA490831088041F683
:10092000A620C8491C31088048F28020091D088093
:10093000C448008820F01000C249088000BFC148A8
:10094000008800F020002028F9D137E0BB48006A79
:1009500040F44070B94908620846006A40F400401B
:10096000086200BFB748008800F020002028F9D1B5
:10097000B448008840F01000B24908804FF223408C
:10098000B0490831088041F6A620AE491C310880E4
:1009900000E020E048F28020091D0880A948008876
:1009A00020F01000A749088000BFA648008800F08A
:1009B00020002028F9D10120A3490870A14800880F
:1009C00020F008009F49088000BF9E48008800F082
:1009D00008000828F9D19B48001F008840F001005A
:1009E0009849091F08809548806940F03D00934967
:1009F00088610846C06940F00100C8610846C069C6
:100A000040F00200C8619148406840F000708F4992
:100A1000486048208E49C8700220887001200880F4
:100A20008C4802F02FFF18208949C8700220887076
:100A30000880884802F026FF48208549C8700220B7
:100A40008870C0200880834802F01CFF824800683C
:100A500041F211110843804908600846006844F2D9
:100A6000444188437C4908607C48406841F2111148
:100A700008437A4948600846406844F24441884344
:100A8000764948600846006840F0007008604FF4FE
:100A9000800008610E2072490860081F006840F459
:100AA0000030091F086042F220206849886008462B
:100AB000406840F0040048606748001F006840F04C
:100AC00080706549091F08600846006840F00060B2
:100AD00008600846006820F08060086047F23050E7
:100AE00060490880081D008842F2240108435D49DE
:100AF000091D08804FF08040008940F056004FF0FB
:100B0000804108810846008B40F0010008830846B8
:100B1000008C40F0020008840846008B40F4F0404E
:100B2000088340F2CF2008850846008840F08800FE
:100B300008804D48008840F001004B4908804A4831
:100B40001030008840F201110843474910310880F5
:100B5000C12045492431088043481830008840F0BE
:100B600001004149183108803F48001D008840F0CD
:100B700002003D49091D08803B480838008840F0C4
:100B800001003949083908803848006840F0010000
:100B9000364908600846006820F0020008603448C2
:100BA000406840F00300324948600846406840F41D
:100BB000205048603A202F49887048712E212D48D6
:100BC00081724173322181733021C1733A202A49E5
:100BD000887048712E2128488172417332218173B7
:100BE0003021C17325202549C8702E2024498870E2
:100BF000032000F0BBF803210846FFF7F3FB0720B2
:100C000000F0B4F803210720FFF7ECFB092000F007
:100C1000ADF803210920FFF7E5FB122000F0A6F84C
:100C200002211220FFF7DEFB1C2000F09FF80221BA
:100C30001C2027E04C24014030000020001002401E
:100C40000024F4000428004020000020000001409F
:100C50001A00002000080140040C0140001001406F
:100C60000C040140083801400804004000700040B6
:100C7000002004E040010020520100201500002067
:100C800006010020FFF7AEFB1D2000F06FF80321E6
:100C90001D20FFF7A7FB0C2000F068F801210C20B5
:100CA000FFF7A0FB10BDFFF7D9FDFFF7FBFC07F036
:100CB0006AFBFFF77EFCFFF7A5FB3248324908606C
:100CC00032480078012808D10021314807F0D3FCD0
:100CD000304807F049FB07F04CFC46E02E482F490E
:100CE00008604FF008024FF000012D4807F008FDA2
:100CF0002C4800882B49091F098840EA01402A49ED
:100D00000988294A121F128841EA0241884204DBFD
:100D10000F21EB2007F055FD03E00F21202007F005
:100D200050FD0A2240211E48083007F0E9FC1F4808
:100D3000007858B11E48007820B14F21422007F0BA
:100D400040FD03E04F21502007F03BFD12481949B8
:100D5000086019480078012801D107F0B3FD174851
:100D60000078032801D100F02BF8B7E700F01F024C
:100D70000121914042094FF0E02303EB8202C2F8C7
:100D8000001170470E000200000401402000002006
:100D90008800002040420F008002002080E100E037
:100DA00040010020086C00401C2800400B0100207E
:100DB0002100002000E100E00A01002014000020D2
:100DC00070B50024042068490860684868490860D4
:100DD00068480088C6B24FF00000674908704FF0BD
:100DE0000700644908804FF000006449088000BF94
:100DF00007F0BFFB6048047800250FE0042C00D109
:100E00000024032202EB8512D1B25D4A52F824007D
:100E100007F031FC601CC4B2681CC5B256480078AB
:100E2000801CA04201DD022DE8DB0F217F2007F0AE
:100E3000C8FC00BF4C48006810F0040F0AD14F48AE
:100E40001438008810F0020F04D14748006810F0F1
:100E5000080FEFD049481438008810F0020F10D066
:100E600046481438008820F00200444914390880AC
:100E70004249088800EBD071C1F347013E4A117026
:100E8000B6E73948006810F0080F0DD03A480078EE
:100E900050B900F083F83448006810F0040F45D0D2
:100EA000042031490860A3E72F48006810F0080FBC
:100EB0000ED03148007801280AD100F05FFA2A48A4
:100EC000006810F0040F31D00420274908608FE734
:100ED0002548006810F0080F0ED027480078022837
:100EE0000AD100F057FC2048006810F0040F1DD014
:100EF00004201D4908607BE71B48006810F0080FBC
:100F00000ED01D48007803280AD100F07CFD164859
:100F1000006810F0040F09D004201349086067E747
:100F2000184807F021FA04200F49086000201649EC
:100F300008700E48154908604FF0E021C1F8000123
:100F40001348007830B1134800780C4908800948EC
:100F5000068005E0104800780849088005480680AA
:100F600007F007FB70BD0000140401408002002060
:100F700080E100E02C0400402C000020240400400C
:100F800068000020E09304001400002080E200E0EC
:100F90002100002023000020220000202DE9FC5F1A
:100FA00000250027A9460026FE48008800F0FF0B18
:100FB000FC4808300088C0B200901320F94908317D
:100FC000088007F0D6FAF84807F05DFC05220621F4
:100FD000F64807F095FB0A224621F448083007F04E
:100FE0008FFB062007F0E0FAF14807F0BDF9082072
:100FF000F0490860002487E0EC48005D0190EB4870
:10100000005D30384FF6FF7101EA4000E549088085
:1010100000BF00BFE748006810F0040F0AD1E148A4
:101020001438008810F0020F04D1E248006810F074
:10103000080FEFD0DF48006810F0080F09D0DE4835
:1010400007F092F9DD4807F0CFFA0820D949086087
:1010500028E0D4481438008810F0020F1CD04FF458
:101060007A7007F081F9CF49088800EBD071C1F39D
:10107000470141F03001019101A807F0E6FB4FF074
:10108000FF3007F0B1FAC7481438008820F002009A
:10109000C44914390880BCE7C648006810F0040F42
:1010A00000D034E044B99DF80400303840F2654186
:1010B000484305EB401525E0012C0ED19DF80400B6
:1010C0003038C0EB4011C1EB002005EB0015BB48E8
:1010D00007F08AFA601CC4B214E0032C09D19DF811
:1010E00004003038C0EB001000EB800005EBC005B9
:1010F00008E0042C06D19DF804003038C0EB001045
:1011000005EB8005601CC4B2052CFFF675AF00BF6F
:10111000462007F049FA0024A2E0A4480830005D08
:101120000190A2480830005D30384FF6FF7101EAA7
:1011300040009C49088000BF00BF9E48006810F036
:10114000040F0AD197481438008810F0020F04D118
:101150009848006810F0080FEFD09648006810F02B
:10116000080F09D0944807F0FFF8944807F03CFABC
:1011700008209049086028E08A481438008810F058
:10118000020F1CD04FF47A7007F0EEF885490888FA
:1011900000EBD071C1F3470141F03001019101A88A
:1011A00007F053FB4FF0FF3007F01EFA7D4814386C
:1011B000008820F002007B4914390880BCE77D4894
:1011C000006810F0040F00D04DE044B99DF8040011
:1011D000303800EB800007EB400087B23EE0012C86
:1011E0000AD19DF804003038384487B2734807F0BC
:1011F000FBF9601CC4B231E0032C09D19DF8040056
:10120000303800EB800009EB400000F0FF0925E0DA
:10121000042C11D19DF804003038484400F0FF0937
:10122000664807F0E1F9654807F0DEF9634807F022
:10123000DBF9E01CC4B211E0082C08D19DF80400D1
:10124000303800EB800006EB4000C6B206E0092C07
:1012500004D19DF8040030383044C6B2601CC4B2DA
:101260000A2CFFF65AAF00BFF11706EB91718910F7
:10127000B6EB810102D04FF0000A01E04FF0010A05
:1012800000240AE00AEB8A0000EBCA004C4908443B
:10129000005D384487B2601CC4B24C45F2DB13E0F9
:1012A00007F5B77087B2701EC6B2002409E0002EA1
:1012B00000DC08E007F26D1087B2701EC6B2601C39
:1012C000C4B2032CF3DB00BF002EE9DC3D480088EC
:1012D0003C49091F098840EA014815B90FB945463C
:1012E0001CE047B93848B8FBF0F040F2A32148436E
:1012F00005EBC01512E05DB93348B8FBF0F100FB17
:101300001181781E40F2A322504301EBC01505E085
:10131000781E40F2A321484305EBC0152948183830
:10132000008840F0100027491839088025490D80B1
:10133000280C091F088023481838008820F0100066
:1013400020491839088000BF1E481838008800F06E
:1013500020002028F8D1FFF72CF91C4807F093FA59
:101360001B4807F001F807F004F90E48A0F800B098
:101370000C49083100980880BDE8FC9F2DE9FC5F0E
:1013800000250027A94600260648008800F0FF0B2C
:10139000044808300088C0B2009013200149083189
:1013A000088017E0240400400001000E40010020E6
:1013B00040420F001404014020A10700000B00046C
:1013C000EC0000201C280040805101000003000CAC
:1013D000400D030007F0CDF8FE4807F054FA05224F
:1013E0000621FD4807F08CF90A224621FA48083008
:1013F00007F086F9062007F0D7F8F84806F0B4FFA2
:101400000820F7490860002487E0F348005D019058
:10141000F148005D30384FF6FF7101EA4000F149B4
:10142000088000BF00BFEE48006810F0040F0AD12A
:10143000EC481438008810F0020F04D1E848006826
:1014400010F0080FEFD0E648006810F0080F09D040
:10145000E54806F089FFE54807F0C6F80820E049AE
:10146000086028E0DF481438008810F0020F1CD014
:101470004FF47A7006F078FFDA49088800EBD071F3
:10148000C1F3470141F03001019101A807F0DDF9F6
:101490004FF0FF3007F0A8F8D2481438008820F049
:1014A0000200D04914390880BCE7CD48006810F02C
:1014B000040F00D034E044B99DF80400303840F205
:1014C0006541484305EB401525E0012C0ED19DF800
:1014D00004003038C0EB4011C1EB002005EB0015D3
:1014E000C24807F081F8601CC4B214E0032C09D193
:1014F0009DF804003038C0EB001000EB800005EBD5
:10150000C00508E0042C06D19DF804003038C0EB7B
:10151000001005EB8005601CC4B2052CFFF675AF0A
:1015200000BF462007F040F80024A2E0AA48083097
:10153000005D0190A8480830005D30384FF6FF711B
:1015400001EA4000A749088000BF00BFA448006826
:1015500010F0040F0AD1A3481438008810F0020FCD
:1015600004D19F48006810F0080FEFD09C48006835
:1015700010F0080F09D09C4806F0F6FE9B4807F0D3
:1015800033F808209649086028E096481438008807
:1015900010F0020F1CD04FF47A7006F0E5FE91496E
:1015A000088800EBD071C1F3470141F0300101918F
:1015B00001A807F04AF94FF0FF3007F015F8894805
:1015C0001438008820F00200864914390880BCE7EE
:1015D0008348006810F0040F00D04DE044B99DF836
:1015E0000400303800EB800007EB400087B23EE09B
:1015F000012C0AD19DF804003038384487B27B486A
:1016000006F0F2FF601CC4B231E0032C09D19DF852
:101610000400303800EB800009EB400000F0FF09C7
:1016200025E0042C11D19DF804003038484400F026
:10163000FF096E4806F0D8FF6C4806F0D5FF6B48EE
:1016400006F0D2FFE01CC4B211E0082C08D19DF8CE
:101650000400303800EB800006EB4000C6B206E024
:10166000092C04D19DF8040030383044C6B2601C07
:10167000C4B20A2CFFF65AAF00BFF11706EB917106
:101680008910B6EB810102D04FF0000A01E04FF063
:10169000010A00240AE00AEB8A0000EBCA00544960
:1016A0000844005D384487B2601CC4B24C45F2DB8C
:1016B00013E007F5B77087B2701EC6B2002409E0C8
:1016C000002E00DC08E007F26D1087B2701EC6B273
:1016D000601CC4B2032CF3DB00BF002EE9DC4548DC
:1016E00000884449091F098840EA014815B90FB923
:1016F00045461CE047B94048B8FBF0F040F2A32152
:10170000484305EBC01512E05DB93B48B8FBF0F16A
:1017100000FB1181781E40F2A322504301EBC0155B
:1017200005E0781E40F2A321484305EBC01533487D
:10173000008840F0100031490880304920310D8088
:101740002C490D80280C2D491C310880280C294972
:10175000091F08802948008820F0100027490880C8
:1017600000BF2648008800F020002028F9D1FEF7AD
:1017700049FE234807F087F8224806F0F5FD06F0F9
:10178000F8FE1848A0F800B0164908310098088003
:10179000BDE8FC9F70B51C4806F0E6FD11480088C6
:1017A000C4B2104808300088C5B264200D49083121
:1017B00008800A200B49088006F0DBFE0820084953
:1017C00008600021114806F056FF4021104806F03D
:1017D00052FF1FE00001000E5201002040420F00A6
:1017E000140401402404004020A10700000B000461
:1017F000EC000020086C00408051010004280040EB
:101800000003000C400D0300E09304009B00002047
:10181000A80000208D48007880010E30C1B27F20E2
:1018200006F0CFFF00BF00BF8948006810F0040F2A
:1018300009D18848008810F0020F04D1844800685C
:1018400010F0080FF0D08348008810F0020F2FD05E
:101850008048143000880A280FDD4E217F2006F0D2
:10186000B0FF0E21202006F0ACFF0A207949143188
:10187000088001207549087013E07648143000880C
:101880000A280EDA0E217F2006F09BFF4E21202031
:1018900006F097FF0A206F491431088000206B4939
:1018A00008706C48008820F002006A490880BAE796
:1018B0006748006810F0080F4BD064480078B0BB50
:1018C00006F057FE6448007890BB4FF08040008BD4
:1018D00020F004004FF0804108830846808920F002
:1018E000020088815D48007800EB80004FF47A7137
:1018F000A1EB4000C90688855848007800EB8000BD
:1019000040F2CA31A1EB4000490708870846008C25
:1019100040F01100088400204E4914310880012055
:101920004D49087000214E4806F0A5FE59E010E030
:10193000FFE74FF08040008C20F011004FF0804115
:1019400008840020444908700021464806F093FEB0
:1019500047E03F48006810F0080F42D03B4800784D
:1019600001283ED106F005FE3B48007808BB4FF049
:101970008040008B40F004004FF08041088308460F
:10198000808940F0020088812D2088850F200887FB
:101990000846008C40F01100088400202D491431C5
:1019A000088001202C49087000212D4806F063FEB4
:1019B00017E04FF08040008C20F011004FF0804184
:1019C00008840846808920F002008881002026498A
:1019D000086026490870204908700021214806F057
:1019E0004AFE234806F0C0FC1A4814300480194807
:1019F0001C3005800820164908601E481E490860F2
:101A000006F0B7FD70BD10B506F0B3FD0820104913
:101A1000086011E00021194806F02DFE05220A2178
:101A2000174806F06DFE4021164806F024FE0522F8
:101A30004A21154806F064FE0548006810F0040FBE
:101A4000E8D0124806F090FC10BD000021000020F4
:101A500014040140100400400B010020220000206B
:101A6000CD000020DC000020240000200C0100201C
:101A7000E09304000002002080E200E078000020F3
:101A8000160100207F00002006010020400D030009
:101A900070B5FE480088FD49091F098840EA0144E5
:101AA000FB4894FBF0F100FB11440CB9FEF781FDFB
:101AB0004FF4616094FBF0F00A2190FBF1F0C0B2AA
:101AC00040F03000F34908704FF4616094FBF0F08F
:101AD0000A2190FBF1F201FB1200C0B240F030008D
:101AE000EC4948704FF4616094FBF0F100FB114544
:101AF0003C2095FBF0F00A2190FBF1F0C0B240F0E1
:101B00003000E449C8703C2095FBF0F00A2190FBBE
:101B1000F1F201FB1200C0B240F03000DD49087163
:101B20003C2095FBF0F100FB11500A2190FBF1F0F5
:101B3000C0B240F03000D74988713C2095FBF0F1ED
:101B400000FB11500A2190FBF1F201FB1200C0B220
:101B500040F03000CF49C871CC481838008820F0D8
:101B60000100CA491839088070BD10B50220CA4961
:101B70000860CA480078012808D1FEF7B3FBC848BE
:101B8000006820F00400C649086005E0C448006809
:101B900040F00400C2490860C24806F0E5FBBF48B7
:101BA000007808B9012000E00020BC49087010BD91
:101BB00010B50820B8490860BA4806F0D5FB0320E4
:101BC000B949087010BD30B5002149E0B74B33F872
:101BD000113040F6B834634340F6FF7493FBF4F3DE
:101BE0009AB24FF47A7392FBF3F3DBB243F0300313
:101BF000AF4C54F8214023704FF47A7392FBF3F406
:101C000003FB1423642493FBF4F3DBB243F03003AF
:101C1000A74C54F82140A3704FF47A7392FBF3F46D
:101C200003FB1423642493FBF4F504FB153398B2EF
:101C30000A2390FBF3F3DBB243F030039C4C54F8DF
:101C40002140E3700A2390FBF3F403FB1403DBB29F
:101C500043F03003964C54F8214023714B1CD9B209
:101C60000229B3DB914B5B8840F6B834634340F6FE
:101C7000FF7493FBF4F39AB2C2F5AF6342F21074AF
:101C8000634341F27E1493FBF4F3FA3398B2642376
:101C900090FBF3F3DBB243F03003864C23706423F4
:101CA00090FBF3F403FB14030A2493FBF4F3DBB27D
:101CB00043F030037F4C6370642390FBF3F403FB29
:101CC00014030A2493FBF4F504FB1533DBB243F051
:101CD0003003784CE37030BD10B54FF08040008A7F
:101CE00020F002004FF08041088273480168734879
:101CF000006807F063FA714908604FF07C516F4843
:101D0000006807F036FC10D24FF08040008C40F0A5
:101D100010004FF0804108844FF07E516748006802
:101D200007F058FC6549086007E04FF08040008CE0
:101D300020F010004FF08041088410BD70B506F00F
:101D400018FC5F480078002877D05E48007820B102
:101D50005D4800785D49088003E05D4800785B4994
:101D6000088005215B4806F086FC00BF5748143800
:101D7000008840F2022188435449143908805148B0
:101D8000007800284AD15148008804B2C12C05DCF3
:101D9000962C03DD00204D49088006E0602C04DD10
:101DA000962C02DA60204949088048480088484952
:101DB00008700846007800EB80004FF47A71A1EBC0
:101DC0004000C90688854248007800EB800040F258
:101DD000CA31A1EB4000490708873D4800786421DB
:101DE00090FBF1F0C0B240F030003B490870384839
:101DF00000780A2190FBF1F0C0B240F03000364983
:101E00004870334800780A2190FBF1F201FB120080
:101E1000C0B240F03000304988707AE0294800783C
:101E2000012876D12948008804B2C12C06DC962C02
:101E300004DD00202549088007E087E0642C04DDEC
:101E4000962C02DA642021490880204800881E4927
:101E500008700846007807F0F9FA05461F4907F0B0
:101E60001BFA1549086018480078642190FBF1F0CE
:101E7000C0B240F03000184908701348007864215F
:101E800090FBF1F060B3302013492AE01C28004099
:101E90008051010040010020140401400A0100208B
:101EA00010ED00E0E0930400140000200E0100207B
:101EB000300000200601002028000020240000201F
:101EC0000B010020210000202300002024040040FA
:101ED0002200002095000020150000200000C842CC
:101EE00001E0487009E02D4800780A2190FBF1F0EC
:101EF000C0B240F030002A494870284800780A21D2
:101F000090FBF1F201FB1200C0B240F03000244916
:101F1000887004220C21224806F0F2FB21484FF081
:101F2000E02148610020886100BF1F48008810F050
:101F3000020F05D14FF0E020006910F4803FF4D08B
:101F40001948008810F0020F0ED00FE70121174842
:101F500006F091FB1448008840F2022188431249A0
:101F60000880134806F000FA4FF00050114908604D
:101F700006F0FFFA70BD4FF400300F49086070475B
:101F800010B5002006F0BAFE06F092FF10BD10B5A5
:101F9000012006F0B3FE07F089F810BD23000020F1
:101FA000150000204054890010040040BF000020AC
:101FB00040420F0080E200E01404014000BFFEE751
:101FC00010B50446F948844205D0F948844202D04D
:101FD000F848844200D103E0B621F7A0FFF7EEFFF6
:101FE000F248844208D10121401502F030FD002161
:101FF000601502F02CFD17E0ED48844208D1012164
:10200000001502F024FD0021201502F020FD0BE058
:10201000E848844208D10121C80302F018FD0021DC
:102020004FF4004002F013FD10BD2DE9F0410546CC
:102030000C4600260027DD48854205D0DC48854255
:1020400002D0DC48854200D103E0DF21DAA0FFF7AF
:10205000B5FF206818B32068B0F5803F1FD0206816
:10206000B0F5003F1BD02068B0F5403F17D0206886
:10207000B0F5802F13D02068B0F5A02F0FD02068C6
:10208000B0F5C02F0BD02068B0F5E02F07D0206846
:10209000B0F5002F03D02068B0F5102F00D103E079
:1020A000E021C5A0FFF78AFF207910B1207901282F
:1020B00000D103E0E121C0A0FFF780FF607910B1FB
:1020C0006079012800D103E0E221BBA0FFF776FF91
:1020D000A06888B3A068B0F5003F2DD0A068B0F527
:1020E000802F29D0A068B0F5C02F25D0A068B0F50A
:1020F000002F21D0A068B0F5202F1DD0A068B0F52A
:10210000402F19D0A068B0F5602F15D0A06898B105
:10211000A068B0F5003F0FD0A068B0F5C02F0BD07D
:10212000A068B0F5002F07D0A068B0F5202F03D02D
:10213000A068B0F5402F00D103E0E3219EA0FFF797
:102140003DFFE06818B1E068B0F5006F00D103E032
:10215000E42199A0FFF732FF207C012803DB207CDB
:10216000102800DC03E0E52193A0FFF727FF6E684D
:102170009E4806402179206840EA012006436E60AF
:10218000AE689B480640D4E902100843617940EAF2
:1021900041000643AE60EE6A26F47006207C401EC5
:1021A000C0B2074346EA0756EE62BDE8F08100215F
:1021B0000160017141718160C1600121017470474A
:1021C00070B504460D467948844205D0784884426B
:1021D00002D07848844200D104E04FF4977176A091
:1021E000FFF7ECFE0DB1012D00D104E040F22F11FC
:1021F00071A0FFF7E3FE25B1A06840F00100A060E8
:1022000003E0A06820F00100A06070BD70B5044636
:102210000D466648844202D06648844200D104E0FC
:1022200040F2471164A0FFF7C9FE0DB1012D00D1A6
:1022300004E04FF4A47160A0FFF7C0FE25B1A068D0
:1022400040F48070A06003E0A06820F48070A0607B
:1022500070BD2DE9F04104460D461646002753484F
:10226000844205D05248844202D05248844200D170
:1022700004E040F2651150A0FFF7A0FE0EB1012E60
:1022800000D104E04FF4B3714BA0FFF797FE4FF677
:102290001F00054201D105B104E040F2671146A0DC
:1022A000FFF78CFEEFB21EB160683843606002E059
:1022B0006068B8436060BDE8F08110B504463B48F3
:1022C000844205D03A48844202D03A48844200D140
:1022D00004E04FF4BF7138A0FFF770FEA06840F033
:1022E0000800A06010BD70B5044600252F48844248
:1022F00005D02F48844202D02E48844200D104E009
:102300004FF4C6712CA0FFF759FEA06810F0080F1B
:1023100001D0012500E00025284670BD10B5044617
:102320002248844205D02248844202D02148844277
:1023300000D104E04FF4D2711FA0FFF73FFEA06868
:1023400040F00400A06010BD70B504460025174899
:10235000844205D01648844202D01648844200D1F7
:1023600004E04FF4D97114A0FFF728FEA06810F024
:10237000040F01D0012500E00025284670BD70B58E
:1023800004460D460948844205D00948844202D0DB
:102390000848844200D104E04FF4E67106A0FFF73C
:1023A0000DFE0DB1012D25D12AE0000000240140D1
:1023B00000280140003C01402E2E5C53544D333226
:1023C000463130785F5374645065726970685F4459
:1023D00072697665725C7372635C73746D333266B6
:1023E0003130785F6164632E63000000FFFEF0FF10
:1023F000FDF7F1FF40F2CD11AFF24400FFF7DEFD33
:1024000025B1A06840F4A000A06003E0A06820F41B
:10241000A000A06070BD70B504460025FE4884424F
:1024200005D0FE48844202D0FD48844200D105E038
:1024300040F2E511AFF28000FFF7C0FDA06810F494
:10244000800F01D0012500E00025284670BD2DE950
:10245000F04104460D4600260027EF48844205D08F
:10246000EE48844202D0EE48844200D105E040F2BA
:102470000221AFF2BC00FFF7A1FD012D02DB082D08
:1024800000DC05E040F20321AFF2D400FFF796FD37
:10249000666826F460466F1E46EA47366660BDE809
:1024A000F08170B504460D46DB48844205D0DB4818
:1024B000844202D0DA48844200D105E040F21B2178
:1024C000AFF20C10FFF77AFD0DB1012D00D105E040
:1024D0004FF40771AFF22010FFF770FD25B160686F
:1024E00040F40060606003E0606820F400606060B9
:1024F00070BD2DE9F04706460C4617469846002564
:10250000A946C548864205D0C448864202D0C44880
:10251000864200D105E040F25221AFF26410FFF78D
:102520004DFD0CB3012C1FD0022C1DD0032C1BD051
:10253000042C19D0052C17D0062C15D0072C13D03D
:10254000082C11D0092C0FD00A2C0DD00B2C0BD03D
:102550000C2C09D00D2C07D00E2C05D00F2C03D03D
:10256000102C01D0112C00D105E040F25321AFF224
:10257000B810FFF723FD012F02DB102F00DC05E070
:102580004FF41571AFF2D010FFF718FDB8F1000F3E
:1025900014D0B8F1010F11D0B8F1020F0ED0B8F17C
:1025A000030F0BD0B8F1040F08D0B8F1050F05D018
:1025B000B8F1060F02D0B8F1070F00D105E040F2E4
:1025C0005521AFF20C20FFF7F9FC092C13DDF5685B
:1025D000A4F10A0000EB4001072000FA01F925EA06
:1025E0000905A4F10A0000EB400008FA00F945EAE9
:1025F0000905F5600EE0356904EB4401072000FA97
:1026000001F925EA090504EB440008FA00F945EA56
:1026100009053561072F11DA756B781E00EB800113
:102620001F2000FA01F925EA0905781E00EB800059
:1026300004FA00F945EA0905756326E00D2F11DA61
:10264000356BF81F00EB80011F2000FA01F925EA25
:102650000905F81F00EB800004FA00F945EA0905B6
:10266000356312E0F56AA7F10D0000EB80011F2031
:1026700000FA01F925EA0905A7F10D0000EB800039
:1026800004FA00F945EA0905F562BDE8F08770B57E
:1026900004460D466048844205D06048844202D01A
:1026A0005F48844200D105E040F2B121AFF2F8204A
:1026B000FFF784FC0DB1012D00D105E040F2B221FD
:1026C000AFF20C30FFF77AFC25B1A06840F480101F
:1026D000A06003E0A06820F48010A06070BD10B579
:1026E00004464D48844205D04C48844202D04C48B0
:1026F000844200D105E040F2C721AFF24430FFF739
:102700005DFCE06C80B210BD43484C3000687047FF
:1027100070B504460D464048844205D03F48844287
:1027200002D03F48844200D105E040F2E121AFF2FF
:102730007830FFF743FC0DB1012D00D105E040F2E8
:10274000E221AFF28C30FFF739FC25B1606840F42C
:102750008060606003E0606820F48060606070BD4D
:1027600070B504460D462C48844205D02B4884425F
:1027700002D02B48844200D105E040F2FB21AFF2A9
:10278000C830FFF71BFC0DB1012D00D105E04FF45F
:102790003F71AFF2DC30FFF711FC25B1606840F407
:1027A0008050606003E0606820F48050606070BD1D
:1027B00070B505460C4600261748854205D01748D7
:1027C000854202D01648854200D105E040F223310F
:1027D000AFF21C40FFF7F2FB54B3B4F5805F27D093
:1027E000B4F5005F24D0B4F5405F21D0B4F5804F3C
:1027F0001ED0B4F5A04F1BD0B4F5C04F18D0B4F51F
:10280000E04F15D0B4F5005F12D0B4F5405F0FD0A3
:10281000B4F5804F0CD005E00024014000280140B1
:10282000003C0140B4F5A04F02D0B4F5C04F00D138
:1028300005E04FF44971AFF28040FFF7BFFBAE688F
:1028400026F4E0462643AE6070BD70B504460D46E2
:10285000FA48844205D0FA48844202D0F9488442BA
:1028600000D105E040F23B31AFF2B440FFF7A6FBE8
:102870000DB1012D00D105E04FF44F71AFF2C8400A
:10288000FFF79CFB25B1A06840F40040A06003E086
:10289000A06820F40040A06070BD70B504460D46ED
:1028A000E648844205D0E648844202D0E5488442A6
:1028B00000D105E04FF45571AFF20450FFF77EFBF5
:1028C0000DB1012D00D105E040F25531AFF21850A5
:1028D000FFF774FB25B1A06840F40210A06003E08C
:1028E000A06820F40210A06070BD70B504460025F9
:1028F000D248844205D0D248844202D0D148844292
:1029000000D105E040F26D31AFF25450FFF756FBB5
:10291000A06810F4001F01D0012500E00025284622
:1029200070BD2DE9F04706460C4691461D4600272E
:10293000B846BA46C148864205D0C148864202D050
:10294000C048864200D105E040F2A631AFF298506F
:10295000FFF734FB0CB3012C1FD0022C1DD0032C2D
:102960001BD0042C19D0052C17D0062C15D0072C01
:1029700013D0082C11D0092C0FD00A2C0DD00B2C01
:102980000BD00C2C09D00D2C07D00E2C05D00F2C01
:1029900003D0102C01D0112C00D105E040F2A7315A
:1029A000AFF2EC50FFF70AFBB9F1010F03DBB9F10D
:1029B000040F00DC05E04FF46A71AFF20460FFF72A
:1029C000FDFA6DB1012D0BD0022D09D0032D07D0DA
:1029D000042D05D0052D03D0062D01D0072D00D1E3
:1029E00005E040F2A931AFF23060FFF7E7FA092CB9
:1029F00013DDF768A4F10A0000EB4001072000FA9C
:102A000001F827EA0807A4F10A0000EB400005FAE4
:102A100000F847EA0807F7600EE0376904EB440165
:102A2000072000FA01F827EA080704EB440005FA3A
:102A300000F847EA08073761B76BC7F3015A09F195
:102A400003000AF10101401A00EB80011F2000FA87
:102A500001F827EA080709F103000AF10101401A09
:102A600000EB800004FA00F847EA0807B763BDE806
:102A7000F0872DE9F04104460D46002600276F48F7
:102A8000844205D06E48844202D06E48844200D110
:102A900005E040F2E631AFF2E060FFF78FFA012D7A
:102AA00002DB042D00DC05E040F2E731AFF2F86014
:102AB000FFF784FAA66B26F440166F1E46EA075607
:102AC000A663BDE8F081F8B505460C461646002021
:102AD00000905A48854205D05948854202D059484D
:102AE000854200D105E040F20641AFF23470FFF7B5
:102AF00065FA142C05D0182C03D01C2C01D0202CE6
:102B000000D105E040F20741AFF25470FFF756FAEA
:102B1000B6F5805F00DA05E04FF48161AFF26870CE
:102B2000FFF74CFA0095009820440090009806604A
:102B3000F8BD38B505460C46002000903F48854258
:102B400005D03F48854202D03E48854200D105E08D
:102B500040F22141AFF2A070FFF730FA142C05D0FB
:102B6000182C03D01C2C01D0202C00D105E040F201
:102B70002241AFF2BC70FFF721FA009504F1280062
:102B80000099084400900098006880B238BD70B584
:102B900005460C4600262948854205D0284885422E
:102BA00002D02848854200D105E040F23E41AFF214
:102BB000F870FFF703FA244884420FD02348844278
:102BC0000CD02348844209D0B4F5000F06D0B4F5E8
:102BD000800F03D0B4F5400F00D004B905E040F2F7
:102BE0003F41AFF62C00FFF7E9F96E681848C04383
:102BF000064026436E6070BD70B504460E4615460D
:102C00000E48844205D00E48844202D00D488442CA
:102C100000D105E040F25741AFF66400FFF7CEF96E
:102C2000B6F5805F00DA05E04FF48B61AFF678000F
:102C3000FFF7C4F9B5F5805F0CDA11E0002401401C
:102C400000280140003C01400002800000024000DA
:102C50000002C00040F25941AFF6A400FFF7AEF900
:102C60006662A56270BD70B505460C4600268448B4
:102C7000854205D08348854202D08348854200D1F1
:102C800005E040F27D41AFF6D000FFF797F90CB3B5
:102C9000012C1FD0022C1DD0032C1BD0042C19D0CA
:102CA000052C17D0062C15D0072C13D0082C11D0CA
:102CB000092C0FD00A2C0DD00B2C0BD00C2C09D0CA
:102CC0000D2C07D00E2C05D00F2C03D0102C01D0CA
:102CD000112C00D105E040F27E41AFF62410FFF741
:102CE0006DF96E6826F01F0626436E6070BD10B544
:102CF00004460CB1012C00D105E040F29241AFF640
:102D00004810FFF75BF944B15D480830006840F4B3
:102D100000005B490831086007E059480830006846
:102D200020F4000056490831086010BD70B5054612
:102D30000C4600265248854205D05248854202D0B2
:102D40005148854200D105E040F2AF41AFF69810FE
:102D5000FFF734F9012C07D0022C05D0042C03D046
:102D6000082C01D0102C00D105E04FF49661AFF68D
:102D7000B810FFF723F92868204201D0012600E0AF
:102D80000026304670BD70B504460D463C4884426E
:102D900005D03C48844202D03B48844200D105E043
:102DA00040F2CF41AFF6F010FFF708F915F0E00F51
:102DB00001D105B105E04FF49A61AFF60420FFF7A9
:102DC000FDF8E843206070BD2DE9F04104460D4652
:102DD00000260027B0462A48844205D0294884426C
:102DE00002D02948844200D105E040F2E441AFF628
:102DF0003820FFF7E3F8B5F5087F05D0B5F5A07FDB
:102E000002D0B5F5906F00D105E040F2E541AFF694
:102E10005820FFF7D3F82F126068E9B200EA0108E2
:102E20002068384204D0B8F1000F01D0012600E03C
:102E300000263046BDE8F08170B504460D460026F8
:102E40000F48844205D00F48844202D00E48844285
:102E500000D105E040F20751AFF6A420FFF7AEF82D
:102E60004FF61F00054201D105B105E04FF4A16105
:102E7000AFF6BC20FFF7A2F82E12F043206070BD21
:102E80000024014000280140003C014010B50446E8
:102E9000F74884422AD0F6481430844226D0F448B9
:102EA0002830844222D0F2483C3084421ED0F04880
:102EB000503084421AD0EE486430844216D0EC4838
:102EC0007830844212D0EB4884420FD0E948143065
:102ED00084420BD0E7482830844207D0E5483C3094
:102EE000844203D0E3485030844200D103E06F2194
:102EF000E1A0FFF763F820684FF6FE7108402060FC
:102F0000002020606060A060E060D948844208D161
:102F1000D7480838406840F00F00D5490839486064
:102F20008AE0D3481430844208D1D1480838406838
:102F300040F0F000CE49083948607DE0CC482830A8
:102F4000844208D1CA480838406840F47060C849D3
:102F50000839486070E0C6483C30844208D1C44813
:102F60000838406840F47040C1490839486063E05F
:102F7000BF485030844208D1BD480838406840F40A
:102F80007020BB490839486056E0B9486430844233
:102F900008D1B7480838406840F47000B44908398F
:102FA000486049E0B2487830844208D1B0480838D7
:102FB000406840F07060AE49083948603CE0AD4878
:102FC000844206D1001F006840F00F00211F0860F6
:102FD00032E0A8481430844208D1A648001F006897
:102FE00040F0F000A349091F086025E0A1482830FF
:102FF000844208D19F48001F006840F470609D49DA
:10300000091F086018E09B483C30844208D1994869
:10301000001F006840F470409649091F08600BE0EB
:1030200094485030844207D19248001F006840F411
:1030300070209049091F086010BD70B505460C4608
:1030400000268B4885422AD089481430854226D0F4
:1030500087482830854222D085483C3085421ED0A2
:103060008348503085421AD081486430854216D05A
:103070007F487830854212D07E4885420FD07D4807
:10308000143085420BD07B482830854207D07948E0
:103090003C30854203D077485030854200D103E070
:1030A000CF2175A0FEF78AFFA068102801D0A06884
:1030B00000B903E0D02170A0FEF780FFE06820B1E6
:1030C000E068B0F5803F00D203E0D1216AA0FEF7AE
:1030D00075FF2069402801D0206900B903E0D221A2
:1030E00065A0FEF76BFF6069802801D0606900B9B8
:1030F00003E0D32160A0FEF761FFA06938B1A069A9
:10310000B0F5807F03D0A069B0F5007F00D103E067
:10311000D42159A0FEF752FFE06938B1E069B0F55B
:10312000806F03D0E069B0F5006F00D103E0D521D6
:1031300051A0FEF743FF206A202801D0206A00B981
:1031400003E0D6214CA0FEF739FF606AB0F5405F7E
:1031500009D0606AB0F5005F05D0606AB0F5805FA5
:1031600001D0606A00B903E0D72143A0FEF726FF33
:10317000A06AB0F5804F01D0A06A00B903E0D82161
:103180003DA0FEF71BFF2E6847F6F0708643216ACC
:10319000A06808432169084361690843A16908439D
:1031A000E1690843616A0843A16A084306432E6047
:1031B000E06868602068A8606068E86070BD002111
:1031C000016041608160C160016141618161C161F3
:1031D000016241628162704770B504460D46244821
:1031E00084422AD022481430844226D020482830F5
:1031F000844222D01E483C3084421ED01C485030AD
:1032000084421AD01A486430844216D01848783064
:10321000844212D0174884420FD01648143084429A
:103220000BD014482830844207D012483C308442E6
:1032300003D010485030844200D104E040F22911FC
:103240000DA0FEF7BBFE0DB1012D00D104E04FF43F
:10325000957109A0FEF7B2FE25B1206840F001008B
:10326000206004E020684FF6FE710840206070BDC9
:1032700008000240080402402E2E5C53544D3332A5
:10328000463130785F5374645065726970685F448A
:1032900072697665725C7372635C73746D333266E7
:1032A0003130785F646D612E6300000070B50446B4
:1032B0000D461646FE4884422AD0FD48143084420A
:1032C00026D0FB482830844222D0F9483C30844242
:1032D0001ED0F748503084421AD0F54864308442FA
:1032E00016D0F3487830844212D0F24884420FD08E
:1032F000F048143084420BD0EE482830844207D086
:10330000EC483C30844203D0EA485030844200D13B
:1033100005E040F24911AFF2A000FEF74FFE35F094
:103320000E0001D105B105E04FF4A571AFF2B80070
:10333000FEF744FE0EB1012E00D105E040F24B1124
:10334000AFF2CC00FEF73AFE1EB1206828432060A1
:1033500002E02068A843206070BD70B504460D46A9
:10336000D34884422AD0D2481430844226D0D04850
:103370002830844222D0CE483C3084421ED0CC48F3
:10338000503084421AD0CA486430844216D0C848AB
:103390007830844212D0C74884420FD0C5481430D8
:1033A00084420BD0C3482830844207D0C1483C3007
:1033B000844203D0BF485030844200D105E04FF42E
:1033C000B271AFF24C10FEF7F9FD656070BD10B53B
:1033D0000446B74884422AD0B5481430844226D0E7
:1033E000B3482830844222D0B1483C3084421ED0B9
:1033F000AF48503084421AD0AD486430844216D071
:10340000AB487830844212D0AA4884420FD0A948F1
:10341000143084420BD0A7482830844207D0A548F6
:103420003C30844203D0A3485030844200D105E0B0
:103430004FF4BB71AFF2C010FEF7C0FD606880B200
:1034400010BD70B5044600250026012C7ED0022C4C
:103450007CD0042C7AD0082C7ED0102C7CD0202C50
:103460007AD0402C78D0802C76D0B4F5807F73D081
:10347000B4F5007F70D0B4F5806F6DD0B4F5006FF7
:103480006AD0B4F5805F67D0B4F5005F64D0B4F55E
:10349000804F61D0B4F5004F5ED0B4F5803F5BD073
:1034A000B4F5003F58D0B4F5802F55D0B4F5002FB7
:1034B00052D0B4F5801F4FD0B4F5001F4CD0B4F5F6
:1034C000800F49D0B4F5000F46D0B4F1807F43D0CF
:1034D000B4F1007F40D0B4F1806F3DD0B4F1006F03
:1034E0003AD07548844237D0A4F18050801E33D042
:1034F000801E31D0001F2FD008382DD010382BD08F
:10350000203829D0403827D06B48FF30844223D060
:103510006A48844220D06A4884421DD06948844267
:103520001AD0B4F1102F17D04FEAF030844213D0E4
:103530006548844210D0654884420DD06448844276
:103540000AD06448844207D0634800E004E0844223
:1035500002D06248844200D105E040F2B711AFF2D8
:10356000E820FEF72BFD14F0805F03D051480838A7
:10357000066802E04E4808380668264201D0012558
:1035800000E00025284670BD10B5044614F0704FC9
:1035900002D05348044201D104B105E040F20E21AB
:1035A000AFF22C30FEF70AFD14F0805F03D04148E3
:1035B000001F046002E03E480838446010BD70B54A
:1035C000044600250026012C70D0022C6ED0042C5D
:1035D0006CD0082C6AD0102C68D0202C66D0402CDF
:1035E00064D0802C62D0B4F5807F5FD0B4F5007FCA
:1035F0005CD0B4F5806F59D0B4F5006F56D0B4F5F7
:10360000805F53D0B4F5005F7FD0B4F5804F7CD09D
:10361000B4F5004F79D0B4F5803F76D0B4F5003FD3
:1036200073D0B4F5802F70D0B4F5002F6DD0B4F501
:10363000801F6AD0B4F5001F67D0B4F5800F64D046
:10364000B4F5000F61D0B4F1807F5ED0B4F1007F9B
:103650005BD0B4F1806F58D0B4F1006F55D01648EC
:10366000844252D0A4F18050801E4ED0801E4CD097
:10367000001F4AD0083848D0103846D0203844D0EF
:10368000403842D00C48FF3084423ED00B48844240
:103690003BD00B48844238D00A48844235D0B4F13C
:1036A000102F32D04FEAF03084421BE02DE00000B2
:1036B000080002400804024001000010000200104F
:1036C00000040010000800100040001000800010EE
:1036D000000001100000021000000410000008109B
:1036E0000000F0EF11D0214884420ED020488442DF
:1036F0000BD02048844208D01F48844205D01F4880
:10370000844202D01E48844200D105E040F2592193
:10371000AFF29C40FEF752FC14F0805F02D01948D3
:10372000066801E018480668264201D0012500E03D
:103730000025284670BD10B5044614F0704F02D025
:103740001248044201D104B105E040F2AF21AFF2CA
:10375000D840FEF733FC14F0805F03D00948001D09
:10376000046001E00848446010BD00000040001003
:103770000080001000000110000002100000041082
:103780000000081000040240000002400000F0EFBA
:1037900010B50446FC48844211D0FC4884420ED047
:1037A000FB4884420BD0FB48844208D0FA4884424C
:1037B00005D0FA48844202D0F948844200D103E09F
:1037C0006F21F8A0FEF7FAFBEF48844208D10121EF
:1037D000042001F03CF90021042001F038F946E012
:1037E000EA48844208D10121082001F030F9002183
:1037F000082001F02CF93AE0E548844208D1012183
:10380000102001F024F90021102001F020F92EE011
:10381000E048844208D10121202001F018F900215C
:10382000202001F014F922E0DB48844208D1012174
:10383000402001F00CF90021402001F008F916E0C9
:10384000D648844208D10121802001F000F90021EE
:10385000802001F0FCF80AE0D148844207D1012120
:10386000801501F0F4F80021A01501F0F0F810BD6A
:1038700010B50121084601F0EAF80021012001F00D
:10388000E6F810BD2DE9F05F05460C464FF0000943
:10389000CA4600260027B046B346BB48854211D031
:1038A000BA4885420ED0BA4885420BD0B948854205
:1038B00008D0B948854205D0B848854202D0B848FA
:1038C000854200D103E0B221B6A0FEF777FBE07895
:1038D000A0B1E078042811D0E07828280ED0E07854
:1038E00048280BD0E078142808D0E078102805D0BC
:1038F000E0781C2802D0E078182800D103E0B3213A
:10390000A8A0FEF75BFB002010B9208800B103E0FF
:10391000B421A4A0FEF752FBE07800F00F09E07894
:1039200010F0100F10D0A078012805D0A078022840
:1039300002D0A078032800D103E0BB2199A0FEF7B4
:103940003DFBA07840EA0909207838B3D5F800801B
:1039500000261FE0012000FA06F7208800EA070A87
:10396000BA4516D1B7000F2000FA07FB28EA0B086A
:1039700009FA07F040EA0808E078282803D1012076
:10398000B040686105E0E078482802D10120B040ED
:103990002861761C082EDDD3C5F800802088FF281A
:1039A0002BDDD5F80480002623E006F10800012174
:1039B00001FA00F7208800EA070ABA4518D1B700D3
:1039C0000F2000FA07FB28EA0B0809FA07F040EA83
:1039D0000808E078282803D106F1080081406961D1
:1039E000E078482804D106F10800012181402961CE
:1039F000761C082ED9D3C5F80480BDE8F09F4FF699
:103A0000FF710180022181700421C170704770B57F
:103A100005460C4600265C48854211D05B4885422D
:103A20000ED05B4885420BD05A48854208D05A4890
:103A3000854205D05948854202D05948854200D177
:103A400004E04FF48F7157A0FEF7B8FA012C25D08F
:103A5000022C23D0042C21D0082C1FD0102C1DD0D8
:103A6000202C1BD0402C19D0802C17D0B4F5807F8F
:103A700014D0B4F5007F11D0B4F5806F0ED0B4F53A
:103A8000006F0BD0B4F5805F08D0B4F5005F05D0AF
:103A9000B4F5804F02D0B4F5004F00D104E040F2FD
:103AA0001F1140A0FEF78AFAA868204201D0012623
:103AB00000E00026304670BD10B50446324884420E
:103AC00011D0324884420ED0314884420BD0314864
:103AD000844208D03048844205D03048844202D025
:103AE0002F48844200D104E04FF49A712DA0FEF7D4
:103AF00065FAA06880B210BD70B505460C46002678
:103B00002148854211D0214885420ED02048854267
:103B10000BD02048854208D01F48854205D01F4859
:103B2000854202D01E48854200D104E04FF4A271C4
:103B30001CA0FEF743FA012C25D0022C23D0042C24
:103B400021D0082C1FD0102C1DD0202C1BD0402C95
:103B500019D0802C17D0B4F5807F14D0B4F5007F35
:103B600011D0B4F5806F0ED0B4F5006F0BD0B4F562
:103B7000805F08D0B4F5005F05D0B4F5804F02D067
:103B8000B4F5004F28D12DE000080140000C0140A1
:103B9000001001400014014000180140001C0140C9
:103BA000002001402E2E5C53544D33324631307884
:103BB0005F5374645065726970685F4472697665BA
:103BC000725C7372635C73746D3332663130785F2C
:103BD0006770696F2E63000040F24511AFF23C0040
:103BE000FEF7ECF9E868204201D0012600E000264B
:103BF000304670BD10B50446FE48844211D0FE48E0
:103C000084420ED0FD4884420BD0FD48844208D047
:103C1000FC48844205D0FC48844202D0FB488442E0
:103C200000D105E04FF4AD71AFF28800FEF7C6F9A0
:103C3000E06880B210BD70B504460D46ED48844280
:103C400011D0ED4884420ED0EC4884420BD0EC48B1
:103C5000844208D0EB48844205D0EB48844202D02D
:103C6000EA48844200D105E040F26911AFF2CC008D
:103C7000FEF7A4F9002008B905B105E04FF4B571CD
:103C8000AFF2E000FEF79AF9256170BD70B5044609
:103C90000D46D848844211D0D74884420ED0D74828
:103CA00084420BD0D648844208D0D648844205D0FE
:103CB000D548844202D0D548844200D105E040F284
:103CC0007911AFF22010FEF779F9002008B905B19B
:103CD00005E04FF4BD71AFF23410FEF76FF9656186
:103CE00070BD70B505460C461646C248854211D0D7
:103CF000C14885420ED0C14885420BD0C04885429C
:103D000008D0C048854205D0BF48854202D0BF4890
:103D1000854200D105E040F28D11AFF27810FEF738
:103D20004DF9012C25D0022C23D0042C21D0082CB5
:103D30001FD0102C1DD0202C1BD0402C19D0802C33
:103D400017D0B4F5807F14D0B4F5007F11D0B4F54E
:103D5000806F0ED0B4F5006F0BD0B4F5805F08D043
:103D6000B4F5005F05D0B4F5804F02D0B4F5004F34
:103D700000D105E04FF4C771AFF2D810FEF71EF97D
:103D80000EB1012E00D105E040F28F11AFF2EC1020
:103D9000FEF714F90EB12C6100E06C6170BD70B5D6
:103DA00004460D469348844211D0934884420ED075
:103DB000924884420BD09248844208D09148844271
:103DC00005D09148844202D09048844200D105E059
:103DD0004FF4D271AFF23420FEF7F0F8E56070BD19
:103DE00070B504460D464FF480368248844211D0A7
:103DF000814884420ED0814884420BD0804884425E
:103E000008D08048844205D07F48844202D07F4851
:103E1000844200D105E040F2B511AFF27820FEF700
:103E2000CDF8002008B905B105E04FF4DB71AFF221
:103E30008C20FEF7C3F82E43A661A561A661A66992
:103E4000A66970BD70B505460C4600263DB1012D32
:103E500005D0022D03D0032D01D0042D00D105E0A3
:103E60004FF4E971AFF2C420FEF7A8F8ECB1012CD1
:103E70001BD0022C19D0032C17D0042C15D0052CE4
:103E800013D0062C11D0072C0FD0082C0DD0092CE4
:103E90000BD00A2C09D00B2C07D00C2C05D00D2CE4
:103EA00003D00E2C01D00F2C00D105E040F2D3112D
:103EB000AFF21030FEF782F8554806684FF6807072
:103EC000064046EA051626435148066070BD10B507
:103ED00004460CB1012C00D105E04FF4F371AFF2B0
:103EE0003C30FEF76BF84B48C46110BD2DE9F0473C
:103EF00004460E460027B8460025A946012C77D077
:103F0000022C75D0042C73D0082C71D0A4F5A0100D
:103F100010386DD020386BD0A4F5B010403867D081
:103F2000803865D03C48844262D03C4884425FD0AF
:103F30003B4884425CD03B48844259D03A48844252
:103F400056D0B4F5805F53D0B4F5EA1F50D0B4F525
:103F5000EB1F4DD0B4F5004F4AD03448844247D0CF
:103F6000A4F50010801E7CD0801E7AD0001F78D06F
:103F7000083876D0B4F1201F73D0303871D02C4877
:103F800084426ED02B4884426BD02B48844268D048
:103F90002A48844265D02A48844262D0B4F5011F81
:103FA0005FD0284884425CD0401C844259D0801C99
:103FB000844256D0001D844253D022480F308442A0
:103FC0004FD020481F3084424BD01E483F3084429F
:103FD00047D01C487F30844243D01A48FF30844287
:103FE0003FD0194884423CD01848844239D02FE051
:103FF00037E0000000080140000C014000100140C3
:104000000014014000180140001C01400020014044
:1040100000000140000020420001180000021800CA
:104020000003180000081A00000C1A00010020000C
:1040300000013000000230000004300000112000B8
:1040400000202000010000800002008000040080A9
:104050006348844205D06348844202D06248844267
:1040600000D105E040F22A21AFF2C840FDF7A6FFDB
:104070000EB1012E00D105E040F22B21AFF2DC4061
:10408000FDF79CFF04F00040B0F1004F02D157480B
:10409000C56901E055484568C4F30349A7B204F473
:1040A0004010B0F5401F08D125F070654F484068BA
:1040B00020F070604D49486013E004F48010B0F5C2
:1040C000801F07D1032000FA09F825EA080545F00A
:1040D000706506E0600D000107FA00F0854345F0C9
:1040E000706526B1600D010107FA01F0054304F087
:1040F0000040B0F1004F02D13C48C56101E03B48AF
:104100004560BDE8F08770B505460C4600265DB1F8
:10411000012D09D0022D07D0032D05D0042D03D089
:10412000052D01D0062D00D105E040F26521AFF24A
:104130008C50FDF743FFECB1012C1BD0022C19D0A1
:10414000032C17D0042C15D0052C13D0062C11D01D
:10415000072C0FD0082C0DD0092C0BD00A2C09D01D
:104160000B2C07D00C2C05D00D2C03D00E2C01D01D
:104170000F2C00D105E040F26621AFF2D850FDF7D8
:104180001DFFA007010F0F2000FA01F617480830A5
:10419000A11050F82100B04314490831A21041F891
:1041A00022000846A11050F82100A107090F05FAC6
:1041B00001F108430D490831A21041F8220070BDF9
:1041C00010B504460CB1012C00D105E04FF41E716E
:1041D000AFF23060FDF7F2FE0548046010BD00004C
:1041E00000080080001000800020008000000140D6
:1041F000DC00204210B50121080700F051FC00212D
:104200004FF0805000F04CFC10BD10B504460CB1CE
:10421000012C00D103E07F2155A0FDF7CFFE6148BE
:10422000046210BD10B504460CB1012C00D103E0AE
:104230008C214FA0FDF7C2FE5A48046110BD70B535
:10424000044600256CB1202C0BD0402C09D0602CEA
:1042500007D0802C05D0A02C03D0C02C01D0E02C9E
:1042600000D103E0A22142A0FDF7A8FE4E48056858
:1042700025F0E0052543056070BD10B504460CB17E
:10428000012C00D103E0B52139A0FDF797FE474886
:10429000046010BD70B504460D4600260CB1012C1B
:1042A00000D103E0C92132A0FDF788FE012D01D025
:1042B000022D00D103E0CA212DA0FDF77FFE3A4870
:1042C000066826F00306264306603948006840F079
:1042D000040037490860012D01D130BF00E020BF44
:1042E0003348006820F004003149086070BD2E4852
:1042F000006840F004002C4908600846006840F05F
:10430000020008602A48006840F00400284908605C
:1043100000BF00BF30BF704770B504460025012CB8
:1043200003D0022C01D0042C00D104E040F209118A
:104330000FA0FDF743FE1C484068204201D0012534
:1043400000E00025284670BD10B50446012C01D0C0
:10435000022C00D104E04FF4917105A0FDF72EFE70
:104360001148006840EA84000F49086010BD000051
:104370002E2E5C53544D3332463130785F53746483
:104380005065726970685F4472697665725C7372B9
:10439000635C73746D3332663130785F7077722E80
:1043A0006300000000000E4200700040A0000E42BA
:1043B00010ED00E0FE48006840F00100FC49086094
:1043C00008464068FB490840F949486008460068CB
:1043D000F9490840F64908600846006820F4802042
:1043E00008600846406820F4FE0048604FF41F0053
:1043F0008860704710B504462CB1B4F5803F02D0F8
:10440000B4F5802F00D104E040F21111EBA0FDF7CC
:10441000D5FDE748006820F48030E549086008468B
:10442000006820F480200860B4F5803F03D0B4F524
:10443000802F0ED106E0DE48006840F48030DC4971
:10444000086007E0DA48006840F4A020D849086016
:1044500000E000BF00BF10BD2DE9F041044600257B
:1044600000260027212C13D0312C11D0392C0FD04D
:10447000412C0DD0612C0BD07A2C09D07B2C07D08D
:104480007C2C05D07D2C03D07E2C01D07F2C00D13C
:1044900004E040F23451C9A0FDF790FD6511012DF3
:1044A00002D1C348066806E0022D02D1C048066A60
:1044B00001E0BF48466A04F01F050120A8403042D1
:1044C00001D0012700E000273846BDE8F08138B56B
:1044D000002000900024002500BF3120FFF7BCFF22
:1044E00005460098401C00900098B0F5A06F01D0E0
:1044F000002DF2D03120FFF7AFFF08B1012400E01A
:104500000024204638BD70B5044600251F2C00DC71
:1045100004E04FF4A971A9A0FDF750FDA448056877
:1045200025F0F80545EAC405056070BD10B50446E0
:104530000CB1012C00D104E040F265119FA0FDF701
:104540003DFDAB48046010BD70B505460C46002625
:104550002DB1B5F5803F02D0B5F5403F00D104E064
:1045600040F27F1195A0FDF729FD4CB3B4F5802FE3
:1045700026D0B4F5002F23D0B4F5402F20D0B4F5C9
:10458000801F1DD0B4F5A01F1AD0B4F5C01F17D0DE
:10459000B4F5E01F14D0B4F5001F11D0B4F5101F0E
:1045A0000ED0B4F5201F0BD0B4F5301F08D0B4F5F1
:1045B000401F05D0B4F5501F02D0B4F5601F00D1E4
:1045C00004E04FF4C0717DA0FDF7F8FC7848466820
:1045D00026F47C1645EA040006437548466070BD23
:1045E00010B504460CB1012C00D104E04FF4CA719F
:1045F00072A0FDF7E3FC7E48046610BD70B504466A
:1046000000251CB1012C01D0022C00D104E04FF494
:104610000E716AA0FDF7D2FC6548456825F00305D8
:104620002543456070BD6248406800F00C0070474B
:1046300070B5044600257CB1802C0DD0902C0BD099
:10464000A02C09D0B02C07D0C02C05D0D02C03D082
:10465000E02C01D0F02C00D104E04FF4197157A0E8
:10466000FDF7ACFC5248456825F0F0052543456050
:1046700070BD70B5044600255CB1B4F5806F08D0FC
:10468000B4F5A06F05D0B4F5C06F02D0B4F5E06FFB
:1046900000D104E040F27E2148A0FDF78FFC4448A1
:1046A000456825F4E0652543456070BD70B5044656
:1046B00000255CB1B4F5806F08D0B4F5A06F05D0CB
:1046C000B4F5C06F02D0B4F5E06F00D104E04FF450
:1046D00026713AA0FDF772FC3548456825F460550F
:1046E00045EAC405456070BD70B504460D4614F03A
:1046F000E00F01D104B104E040F2BF212FA0FDF78B
:104700005DFC0DB1012D00D104E04FF430712BA000
:10471000FDF754FC2DB12648407A204324494872C5
:1047200004E02348407AA0432149487270BD10B587
:1047300004460CB1012C00D104E040F2DB211FA0A3
:10474000FDF73CFC2B48046010BD70B50446002505
:1047500044B1B4F5804F05D0B4F5004F02D0B4F5A4
:10476000404F00D104E040F2023114A0FDF726FCD6
:104770000F48456825F440452543456070BD10B598
:1047800004461CB1012C01D0042C00D104E04FF4EC
:1047900050710AA0FDF712FC002017490870044967
:1047A00081F82000012C29D0042C2FD12AE0000010
:1047B000001002400000FFF8FFFFF6FE2E2E5C53B3
:1047C000544D3332463130785F53746450657269AA
:1047D00070685F4472697665725C7372635C73744F
:1047E0006D3332663130785F7263632E6300000090
:1047F00000004242D8004242201002400120F44909
:10480000087004E00520F249087000E000BF00BF16
:1048100010BD10B504460CB1012C00D105E040F2EA
:104820006131AFF26800FDF7C9FBEA48046010BDD2
:1048300010B50446B4F5807F05D0B4F5007F02D0F2
:10484000B4F5407F00D105E040F27231AFF2940040
:10485000FDF7B4FBDE482038006A2043DC492039EC
:10486000086210BD10B504460CB1012C00D105E062
:104870004FF46071AFF2BC00FDF7A0FBD54844389F
:10488000046010BD30B50021002200240023D04D6B
:10489000203D6D6805F00C0121B1042905D00829DF
:1048A00026D105E0CC4D056025E0CB4D056022E02A
:1048B000C74D203D6D6805F47012C54D203D6D68F3
:1048C00005F48034022505EB92421CB9C34D5543D3
:1048D00005600CE0BE4D203D6D6815F4003F03D02F
:1048E000BE4D5543056002E0BB4D5543056002E0F7
:1048F000B94D056000BF00BFB54D203D6D6805F0A6
:10490000F0010909B64D6B5C0568DD404560B04DAE
:10491000203D6D6805F4E061090AB14D6B5C4568A6
:10492000DD408560AA4D203D6D6805F46051C90ADF
:10493000AB4D6B5C4568DD40C560A54D203D6D68A5
:1049400005F44041890BA74D6B5CC568B5FBF3F5D9
:10495000056130BD70B504460D4640F2575034EA4B
:10496000000001D104B105E040F22B41AFF2B410D8
:10497000FDF724FB0DB1012D00D105E040F22C41E3
:10498000AFF2C810FDF71AFB3DB1914820384069DD
:1049900020438F492039486106E08D48203840691E
:1049A000A0438B492039486170BD70B504460D465F
:1049B0008D48044201D104B105E040F24A41AFF212
:1049C0000420FDF7FBFA0DB1012D00D105E040F206
:1049D0004B41AFF21820FDF7F1FA3DB17C48203889
:1049E000806920437A492039886106E07848203878
:1049F0008069A04376492039886170BD70B504464E
:104A00000D467A48044201D104B105E040F2694103
:104A1000AFF25820FDF7D2FA0DB1012D00D105E01B
:104A200040F26A41AFF26C20FDF7C8FA3DB1684828
:104A30002038C069204366492039C86106E06448CF
:104A40002038C069A04362492039C86170BD70B583
:104A500004460D466448044201D104B105E040F229
:104A6000A441AFF2A820FDF7A9FA0DB1012D00D1A4
:104A700005E040F2A541AFF2BC20FDF79FFA3DB141
:104A800053482038C068204351492039C86006E0A7
:104A90004F482038C068A0434D492039C86070BDD8
:104AA00070B504460D465148044201D104B105E0F9
:104AB00040F2C341AFF2FC20FDF780FA0DB1012DA9
:104AC00000D105E040F2C441AFF21030FDF776FAB4
:104AD0003DB13F482038006920433D4920390861F5
:104AE00006E03B4820380069A04339492039086175
:104AF00070BD10B504460CB1012C00D105E04FF497
:104B00009B61AFF24830FDF759FA324840380460F3
:104B100010BD10B504460CB1012C00D105E040F2E7
:104B2000E541AFF26830FDF749FA3148C46410BD81
:104B300010B504463CB1052C05D0042C03D0062C3E
:104B400001D0072C00D105E040F20551AFF29430BE
:104B5000FDF734FA1E482038C47110BD1C482038B7
:104B6000406A40F080701A4920394862704770B539
:104B700004460025012C09D0022C07D0042C05D0B6
:104B8000082C03D0102C01D0802C00D105E040F27D
:104B90007E51AFF2D830FDF711FA0D482038806809
:104BA000204201D0012500E00025284670BD10B547
:104BB000044614F0600F01D104B105E040F2AB519E
:104BC000AFF20840FDF7FAF901482038847210BDB1
:104BD000201002408004424200127A0000093D0089
:104BE0002A0100203A0100200200C0FF00360181A6
:104BF0000000424210B50446F84884422FD0B4F178
:104C0000804F2CD0F648844229D0F648844226D0E2
:104C1000F548844223D0F548844220D0F4488442A9
:104C20001DD0F44884421AD0F348844217D0F34888
:104C3000844214D0F248844211D0F24884420ED00B
:104C4000F14884420BD0F148844208D0F0488442B5
:104C500005D0F048844202D0EF48844200D103E0FE
:104C60007D21EEA0FDF7AAF9DC48844208D101219C
:104C7000C014FFF7ECFE0021E014FFF7E8FEC4E0EB
:104C8000B4F1804F08D101210846FFF709FF002148
:104C90000120FFF705FFB8E0D148844208D1012187
:104CA0000220FFF7FDFE00210220FFF7F9FEACE035
:104CB000CC48844208D101210420FFF7F1FE0021F5
:104CC0000420FFF7EDFEA0E0C748844208D101218F
:104CD0000820FFF7E5FE00210820FFF7E1FE94E041
:104CE000C248844208D101211020FFF7D9FE0021DB
:104CF0001020FFF7D5FE88E0BD48844208D101218D
:104D00002020FFF7CDFE00212020FFF7C9FE7CE028
:104D1000B848844208D101214014FFF798FE0021D1
:104D20006014FFF794FE70E0B348844209D101217A
:104D3000C804FFF78CFE00214FF40020FFF787FE28
:104D400063E0AE48844209D101210805FFF77FFEE8
:104D500000214FF48010FFF77AFE56E0A848844205
:104D600009D101214805FFF772FE00214FF4001020
:104D7000FFF76DFE49E0A348844208D1012140209D
:104D8000FFF78EFE00214020FFF78AFE3DE09E489F
:104D9000844208D101218020FFF782FE002180207B
:104DA000FFF77EFE31E09948844208D10121801549
:104DB000FFF776FE0021A015FFF772FE25E094486C
:104DC000844209D101210804FFF741FE00214FF47C
:104DD0008030FFF73CFE18E08E48844209D1012163
:104DE0004804FFF734FE00214FF40030FFF72FFE98
:104DF0000BE08948844208D101218804FFF727FE8F
:104E000000214FF48020FFF722FE10BD70B504464C
:104E10000D460026714884422FD0B4F1804F2CD02B
:104E20006F48844229D06F48844226D06E4884421D
:104E300023D06E48844220D06D4884421DD06D48F6
:104E400084421AD06C48844217D06C48844214D0F3
:104E50006B48844211D06B4884420ED06A48844229
:104E60000BD06A48844208D06948844205D069481A
:104E7000844202D06848844200D103E0E72167A061
:104E8000FDF79CF8688858B16888102808D06888B1
:104E9000202805D06888402802D06888602800D182
:104EA00003E0E8215DA0FDF789F8E88838B1E888DB
:104EB000B0F5807F03D0E888B0F5007F00D103E033
:104EC000E92156A0FDF77AF82688444884420ED09E
:104ED000484884420BD0B4F1804F08D04048844207
:104EE00005D04048844202D03F48844204D14FF666
:104EF0008F700640688806433C48844207D03C488F
:104F0000844204D04FF6FF400640E88806432680DE
:104F1000A888A08528882085304884420BD0354851
:104F2000844208D03A48844205D03A48844202D0AC
:104F30003948844201D1287A20860120A08270BDA0
:104F40002DE9F04104460D464FF0000800260027E9
:104F50002248844229D0B4F1804F26D02048844290
:104F600023D02048844220D01F4884421DD02148AD
:104F700084421AD02048844217D02048844214D05A
:104F80001F48844211D01F4884420ED01E488442DC
:104F90000BD01E48844208D01D48844205D01D48CD
:104FA000844202D01C48844200D104E04FF48E7148
:104FB0001AA0FDF703F8288870B1288810280BD0B4
:104FC0002888202808D02888302805D028886028FC
:104FD00002D0288870283BD140E00000002C01401E
:104FE0000004004000080040000C00400010004099
:104FF0000014004000340140004C014000500140CA
:105000000054014000180040001C004000200040F7
:105010000040014000440140004801402E2E5C53F6
:10502000544D3332463130785F5374645065726941
:1050300070685F4472697665725C7372635C7374E6
:105040006D3332663130785F74696D2E6300000015
:1050500040F21D11AFF23C00FCF7B0FF688810B1C0
:105060006888012800D105E04FF48F71AFF2540039
:10507000FCF7A4FF288910B12889022800D105E097
:1050800040F21F11AFF26C00FCF798FF208C4FF636
:10509000FE7108402084268CA788B4F818804FF64B
:1050A0008F7008EA0008881E08EA0008288840EA8D
:1050B0000808481E06402889064368880643FE48BB
:1050C00084420BD0FD48844208D0FD48844205D07C
:1050D000FC48844202D0FC48844245D1A88810B1E3
:1050E000A888042800D105E04FF49E71AFF2D400E7
:1050F000FCF764FF688910B16889082800D105E0D1
:1051000040F23D11AFF2EC00FCF758FFE889B0F532
:10511000007F01D0E88900B905E04FF49F71AFF23C
:105120000410FCF74BFFA889B0F5807F01D0A88957
:1051300000B905E040F23F11AFF22010FCF73EFF4E
:105140004FF6F7700640688906434FF6FB7006403D
:10515000A88806434FF6FF6007404FF6FF50074010
:10516000A8890743E8890743A780A4F81880E8883E
:10517000A0862684BDE8F0812DE9F04105460C4665
:105180004FF0000800260027CB48854217D0B5F124
:10519000804F14D0CD48854211D0CD4885420ED0E5
:1051A000CC4885420BD0C548854208D0CA488542C4
:1051B00005D0CA48854202D0C148854200D105E0E9
:1051C00040F26F11AFF2AC10FCF7F8FE208870B11E
:1051D000208810280BD02088202808D0208830284C
:1051E00005D02088602802D02088702800D105E0F2
:1051F0004FF4B871AFF2DC10FCF7E0FE608810B13C
:105200006088012800D105E040F27111AFF2F4107E
:10521000FCF7D4FE208910B12089022800D105E0D6
:105220004FF4B971AFF20C20FCF7C8FE288C4FF692
:10523000EF71084028842E8CAF88B5F8188048F6A6
:10524000FF7008EA00084FF6FF4008EA00082088CF
:105250004FF6FF7101EA002040EA08084FF6DF70C0
:105260000640208901EA00100643608801EA001028
:1052700006439148854202D0904885424FD1A0888C
:1052800010B1A088042800D105E040F28F11AFF2E0
:105290007420FCF793FE608910B16089082800D162
:1052A00005E04FF4C871AFF28C20FCF787FEE0896F
:1052B000B0F5007F01D0E08900B905E040F291111E
:1052C000AFF2A820FCF77AFEA089B0F5807F01D06C
:1052D000A08900B905E04FF4C971AFF2C020FCF716
:1052E0006DFE4FF67F70064060894FF6FF7101EA50
:1052F000001006434FF6BF700640A08801EA001078
:1053000006434FF6FF3007404FF2FF700740A08979
:1053100001EA80000743E08901EA80000743AF808B
:10532000A5F81880E08828872E84BDE8F0812DE953
:10533000F04105460C464FF00008002600275E4865
:1053400085420ED0B5F1804F0BD06048854208D021
:105350005F48854205D05F48854202D05748854264
:1053600000D105E040F2C111AFF25030FCF726FE4B
:10537000208870B1208810280BD02088202808D0E1
:105380002088302805D02088602802D02088702806
:1053900000D105E04FF4E171AFF28030FCF70EFE72
:1053A000608810B16088012800D105E040F2C31187
:1053B000AFF29830FCF702FE208910B12089022854
:1053C00000D105E04FF4E271AFF2B030FCF7F6FD2A
:1053D000288C4FF6FF61084028842E8CAF88B5F8E2
:1053E0001C804FF68F7008EA00084FF6FC7008EA40
:1053F0000008208840EA08084FF6FF500640208940
:105400004FF6FF7101EA00200643608801EA0020A0
:1054100006432948854202D02848854264D1A088A5
:1054200010B1A088042800D105E04FF4F071AFF26C
:105430001440FCF7C3FD608910B16089082800D1D1
:1054400005E040F2E111AFF22C40FCF7B7FDE08936
:10545000B0F5007F01D0E08900B905E04FF4F171AB
:10546000AFF24840FCF7AAFDA089B0F5807F01D0DB
:10547000A08900B905E040F2E311AFF26040FCF70B
:105480009DFD4FF2FF70064060894FF6FF7101EA03
:10549000002006434FF6FF300640A08801EA0020B6
:1054A00006434EF6FF7007404DF6FF700740A08997
:1054B00001EA0010074313E0002C014000340140D2
:1054C0000040014000440140004801400004004009
:1054D00000080040000C0040004C01400018004053
:1054E000E08901EA00100743AF80A5F81C80E0883E
:1054F000A8872E84BDE8F0812DE9F04104460D46D1
:1055000000270026B046F84884420ED0B4F1804F00
:105510000BD0F648844208D0F548844205D0F548BF
:10552000844202D0F448844200D105E04FF4047173
:10553000AFF21850FCF742FD288870B12888102877
:105540000BD02888202808D02888302805D0288823
:10555000602802D02888702800D105E040F211218F
:10556000AFF24850FCF72AFD688810B1688801281E
:1055700000D105E040F21221AFF26050FCF71EFDB1
:10558000288910B12889022800D105E040F21321B2
:10559000AFF27850FCF712FD208C4EF6FF710840F8
:1055A0002084268CB4F80480A78B48F6FF7007404F
:1055B0004FF6FF40074028884FF6FF7101EA0020B0
:1055C00007434DF6FF700640288901EA0030064384
:1055D000688801EA00300643C348844202D0C648C6
:1055E000844217D1A889B0F5807F01D0A88900B97D
:1055F00005E04FF40C71AFF2DC50FCF7DFFC4BF62A
:10560000FF7008EA0008A8894FF6FF7101EA8010D0
:1056100040EA0808A4F80480A783E888A4F84000BA
:105620002684BDE8F08170B504460D46AE4884423C
:105630000ED0B4F1804F0BD0AC48844208D0AC48B7
:10564000844205D0AB48844202D0AB48844200D1AA
:1056500005E040F67611AFF23C60FCF7AFFC2DB1EF
:10566000042D03D0082D01D00C2D00D105E040F60B
:105670007711AFF25860FCF7A1FCA08B4FF2FF311D
:105680000840A083A08B4FF6FF7101EA0521084373
:10569000A08370BDF0B50C461546002200210026FF
:1056A000078C4EF6FF7C07EA0C070784828B018C7F
:1056B0004FF6FF7707EA043640F6FF473A404FF6C9
:1056C000FF7707EA05273A434FF6FF7707EA0337E4
:1056D0003A43854FB8420ED0874FB8420BD0B0F155
:1056E000804F08D0814FB84205D0814FB84202D0D8
:1056F000804FB84206D14DF6FF77394046F48057C7
:10570000394305E047F6FF57394044F480573943A1
:1057100082830184F0BD70B504460D467248844210
:105720000ED0B4F1804F0BD07048844208D070483E
:10573000844205D06F48844202D06F48844200D131
:1057400005E04FF41661AFF22C70FCF737FC2DB179
:10575000042D03D0082D01D00C2D00D105E040F61A
:105760006111AFF24870FCF729FCA08B4FF6F37182
:105770000840A083A08B2843A08370BDF0B50C46E1
:105780001546002200210026078C4FF6FF6C07EA21
:105790000C070784828B018C4FF6FF7707EA0426FB
:1057A0004FF60C773A404FF6FF7707EA03172F437F
:1057B0003A434D4FB8420ED04F4FB8420BD0B0F1E4
:1057C000804F08D0494FB84205D0494FB84202D067
:1057D000484FB84206D14FF6FF57394046F480771C
:1057E000394305E04FF2FF57394044F4807739439D
:1057F00082830184F0BD70B504460D463A48844268
:1058000017D0B4F1804F14D03848844211D03848B2
:1058100084420ED0374884420BD03748844208D0A7
:105820003648844205D03648844202D03548844206
:1058300000D105E040F64A11AFF62000FCF7BEFBB0
:105840002DB1042D03D0082D01D00C2D00D105E081
:1058500040F64B11AFF63C00FCF7B0FB208B4FF24B
:10586000FF3108402083208B4FF6FF7101EA0521AC
:105870000843208370BDF0B50C4615460022002178
:105880000026078C4FF6EF7C07EA0C070784028B93
:10589000018C4FF6FF7707EA041640F6FF473A40BF
:1058A0004FF6FF7707EA03373A434FF6FF7707EAE9
:1058B00005273A430C4FB8420ED00F4FB8420BD0D9
:1058C000B0F1804F08D0094FB84205D0084FB84218
:1058D00002D0084FB84217D14FF6DF77394046F073
:1058E0001007394316E00000002C0140000400407E
:1058F00000080040000C004000340140004C014012
:1059000000180040004001404FF65F77394044F0F6
:105910001007394302830184F0BD70B504460D467B
:10592000FB48844229D0B4F1804F26D0F948844204
:1059300023D0F948844220D0F84884421DD0F8484A
:1059400084421AD0F748844217D0F748844214D0D2
:10595000F648844211D0F64884420ED0F54884427D
:105960000BD0F548844208D0F448844205D0F4486E
:10597000844202D0F348844200D105E040F634115D
:10598000AFF66810FCF71AFB2DB1042D03D0082DDB
:1059900001D00C2D00D105E040F63511AFF6841092
:1059A000FCF70CFB208B4FF6F37108402083208B13
:1059B0002843208370BDF0B50C4615460022002117
:1059C000068C4FF6FE773E400684028B018C4FF624
:1059D0000C7632407E1C06EA03162E433243CC4E30
:1059E000B0420ED0CE4EB0420BD0B0F1804F08D0B6
:1059F000C84EB04205D0C84EB04202D0C74EB042E9
:105A000006D14FF6FD76314044F00106314305E002
:105A10004FF6F576314044F00106314302830184AC
:105A2000F0BD70B504460D46288840B1288804288A
:105A300005D02888082802D028880C2800D105E045
:105A400040F24E21AFF62C20FCF7B8FAA8880128C6
:105A500005D0A888022802D0A888032800D105E034
:105A600040F24F21AFF64C20FCF7A8FAE88840B18D
:105A7000E888042805D0E888082802D0E8880C289F
:105A800000D105E04FF41471AFF67020FCF796FAE0
:105A900028890F2800DC05E040F25121AFF6842070
:105AA000FCF78CFA9A4884420ED09D4884420BD071
:105AB000B4F1804F08D09748844205D0964884427C
:105AC00002D0964884420CD1688810B168880228B8
:105AD00000D115E040F25621AFF6C020FCF76EFA77
