:020000040800F2
:1028000030080020892900088D2900088F29000838
:10281000912900089329000895290008000000006C
:1028200000000000000000000000000097290008E0
:1028300099290008000000009B2900089D29000834
:102840009F2900089F2900089F290008455100087A
:102850009F2900089F2900089F2900086543000858
:102860009F290008BD4300089F2900089F290008F0
:102870009F2900089F2900089F2900089F29000818
:102880009F2900089F290008912A00089F29000815
:1028900075630008A53800089F2900089F290008D3
:1028A0009F2900089F2900089F2900089F290008E8
:1028B000BD5C0008295D00089F2900089F290008C9
:1028C0009F2900089F2900089F2900089F290008C8
:1028D0009F2900089F2900089F2900089F290008B8
:1028E0009F290008355100089F29000800F002F8D0
:1028F00000F03AF80AA090E8000C82448344AAF160
:102900000107DA4501D100F02FF8AFF2090EBAE85D
:102910000F0013F0010F18BFFB1A43F00103184713
:10292000A4490000C4490000103A24BF78C878C107
:10293000FAD8520724BF30C830C144BF04680C60C5
:10294000704700000023002400250026103A28BF0D
:1029500078C1FBD8520728BF30C148BF0B60704711
:102960001FB51FBD10B510BD00F02DF81146FFF7C3
:10297000F7FF03F059FF00F04BF803B4FFF7F2FF45
:1029800003BC00F04FF8000008480047FEE7FEE7F0
:10299000FEE7FEE7FEE7FEE7FEE7FEE7FEE7FEE70F
:1029A00003480449044A054B70470000ED2800081D
:1029B00030020020300800203004002030040020C5
:1029C000704770477047754600F028F8AE4605001E
:1029D0006946534620F00700854618B020B5FFF73A
:1029E000DFFFBDE820404FF000064FF000074FF03A
:1029F00000084FF0000B21F00701AC46ACE8C0091D
:102A0000ACE8C009ACE8C009ACE8C0098D46704725
:102A10000446AFF300802046FFF7AFFF0048704741
:102A2000CC01002001491820ABBEFEE726000200C1
:102A30007047000010B501F075FA08200E490860D3
:102A400011E000210D4802F033FA05220A210C485A
:102A500002F072F940210B4802F02AFA05224A21BD
:102A6000094802F069F90448006810F0040FE8D042
:102A7000064801F067FC10BD14040140640000200A
:102A8000020100206B000020F2000020400D030036
:102A900030B5002149E0434B33F8113040F6B834EB
:102AA000634340F6FF7493FBF4F39AB24FF47A73E6
:102AB00092FBF3F3DBB243F030033B4C54F821407C
:102AC00023704FF47A7392FBF3F403FB1423642412
:102AD00093FBF4F3DBB243F03003334C54F8214062
:102AE000A3704FF47A7392FBF3F403FB1423642472
:102AF00093FBF4F504FB153398B20A2390FBF3F330
:102B0000DBB243F03003284C54F82140E3700A2331
:102B100090FBF3F403FB1403DBB243F03003224CCD
:102B200054F8214023714B1CD9B20229B3DB1D4B51
:102B30005B8840F6B834634340F6FF7493FBF4F3CC
:102B40009AB2C2F5AF6342F21074634341F27E144D
:102B500093FBF4F3FA3398B2642390FBF3F3DBB204
:102B600043F03003114C2370642390FBF3F403FB18
:102B700014030A2493FBF4F3DBB243F030030B4C51
:102B80006370642390FBF3F403FB14030A2493FBA8
:102B9000F4F504FB1533DBB243F03003034CE37070
:102BA00030BD0000FA0000201C000020F2000020D0
:102BB00010B54FF4004002F0C1F90121480202F0C3
:102BC00077FA0121042002F031FA0121084602F0CF
:102BD000EBF90120504908800020C8704F4801F0EF
:102BE0007FFC30204C4908800020C8704C4801F020
:102BF00077FC0120484908800020C870494801F04E
:102C00006FFC02204849C8600020886088624748FD
:102C100048604FF48060C8618020486120200862CD
:102C20004348086080158861002008614862414877
:102C300001F026FA01213F4801F0B8F900203E4991
:102C4000C880488042F27470888041F61F40088036
:102C50003A4803F0BBFA7020394908800020088107
:102C600042F21070C88001204880344803F0F8F91F
:102C70000121324803F068F90020324948710120EF
:102C8000087100200860C8604FF42020886002208E
:102C9000087427484C3800F0B7F901224FF4087146
:102CA00023484C3800F05CF9012121484C3800F0F1
:102CB00093F8012000F0AEFB0723012200211C48FD
:102CC0004C3800F087FA07230222102118484C38AC
:102CD00000F080FA012116484C3800F0BFF80121BD
:102CE00013484C3800F032F811484C3800F05CFBC7
:102CF00000BF0F484C3800F0F7F80028F9D1002445
:102D000006E02E20104951F824104870601CC4B20F
:102D1000022CF6DB10BD0000060000200008014078
:102D200000100140000C014078010020FA00002052
:102D30004C240140080002405C01002000080040D3
:102D400066010020480100201C00002070B50446E8
:102D50000D461148844205D01048844202D01048E4
:102D6000844200D104E04FF497710EA003F0F8FB09
:102D70000DB1012D00D104E040F22F1109A003F0A4
:102D8000EFFB25B1A06840F00100A06003E0A0685F
:102D900020F00100A06070BD002401400028014027
:102DA000003C01402E2E5C53544D33324631307876
:102DB0005F5374645065726970685F4472697665C8
:102DC000725C7372635C73746D3332663130785F3A
:102DD0006164632E6300000070B504460D46104820
:102DE000844202D00F48844200D104E040F24711EF
:102DF0000DA003F0B5FB0DB1012D00D104E04FF49F
:102E0000A47109A003F0ACFB25B1A06840F4807068
:102E1000A06003E0A06820F48070A06070BD000096
:102E200000240140003C01402E2E5C53544D3332AF
:102E3000463130785F5374645065726970685F44DE
:102E400072697665725C7372635C73746D3332663B
:102E50003130785F6164632E6300000070B5044612
:102E60000D461148844205D01048844202D01048D3
:102E7000844200D104E040F2B1210EA003F070FBC7
:102E80000DB1012D00D104E040F2B22109A003F000
:102E900067FB25B1A06840F48010A06003E0A06843
:102EA00020F48010A06070BD002401400028014083
:102EB000003C01402E2E5C53544D33324631307865
:102EC0005F5374645065726970685F4472697665B7
:102ED000725C7372635C73746D3332663130785F29
:102EE0006164632E6300000070B5044600250C4841
:102EF000844205D00B48844202D00B48844200D162
:102F000004E04FF4D97109A003F02AFBA06810F087
:102F1000040F01D0012500E00025284670BD000007
:102F20000024014000280140003C01402E2E5C534B
:102F3000544D3332463130785F5374645065726952
:102F400070685F4472697665725C7372635C7374F7
:102F50006D3332663130785F6164632E6300000048
:102F60002DE9F04104460D461646002716488442D6
:102F700005D01648844202D01548844200D104E0AE
:102F800040F2651113A003F0EBFA0EB1012E00D14F
:102F900004E04FF4B3710FA003F0E2FA4FF61F0004
:102FA000054201D105B104E040F2671109A003F028
:102FB000D7FAEFB21EB160683843606002E0606823
:102FC000B8436060BDE8F081002401400028014062
:102FD000003C01402E2E5C53544D33324631307844
:102FE0005F5374645065726970685F447269766596
:102FF000725C7372635C73746D3332663130785F08
:103000006164632E630000002DE9F04105460C4623
:10301000002600275D48854205D05D48854202D0E4
:103020005C48854200D103E0DF215BA003F098FA01
:10303000206818B32068B0F5803F1FD02068B0F535
:10304000003F1BD02068B0F5403F17D02068B0F596
:10305000802F13D02068B0F5A02F0FD02068B0F5D6
:10306000C02F0BD02068B0F5E02F07D02068B0F556
:10307000002F03D02068B0F5102F00D103E0E0212D
:1030800045A003F06DFA207910B12079012800D114
:1030900003E0E12140A003F063FA607910B16079A8
:1030A000012800D103E0E2213BA003F059FAA06817
:1030B00088B3A068B0F5003F2DD0A068B0F5802F90
:1030C00029D0A068B0F5C02F25D0A068B0F5002F9A
:1030D00021D0A068B0F5202F1DD0A068B0F5402FFA
:1030E00019D0A068B0F5602F15D0A06898B1A0687D
:1030F000B0F5003F0FD0A068B0F5C02F0BD0A0688E
:10310000B0F5002F07D0A068B0F5202F03D0A0683D
:10311000B0F5402F00D103E0E3211FA003F020FA17
:10312000E06818B1E068B0F5006F00D103E0E42179
:1031300019A003F015FA207C012803DB207C10285D
:1031400000DC03E0E52114A003F00AFA6E681F48D2
:1031500006402179206840EA012006436E60AE688F
:103160001B480640D4E902100843617940EA410057
:103170000643AE60EE6A26F47006207C401EC0B2A4
:10318000074346EA0756EE62BDE8F081002401409D
:1031900000280140003C01402E2E5C53544D333238
:1031A000463130785F5374645065726970685F446B
:1031B00072697665725C7372635C73746D333266C8
:1031C0003130785F6164632E63000000FFFEF0FF22
:1031D000FDF7F1FF2DE9F04706460C4617469846E5
:1031E0000025A9466048864205D06048864202D044
:1031F0005F48864200D104E040F252215DA003F016
:10320000AFF90CB3012C1FD0022C1DD0032C1BD006
:10321000042C19D0052C17D0062C15D0072C13D050
:10322000082C11D0092C0FD00A2C0DD00B2C0BD050
:103230000C2C09D00D2C07D00E2C05D00F2C03D050
:10324000102C01D0112C00D104E040F2532149A0F0
:1032500003F086F9012F02DB102F00DC04E04FF4AD
:10326000157144A003F07CF9B8F1000F14D0B8F147
:10327000010F11D0B8F1020F0ED0B8F1030F0BD02F
:10328000B8F1040F08D0B8F1050F05D0B8F1060F5A
:1032900002D0B8F1070F00D104E040F2552135A06B
:1032A00003F05EF9092C13DDF568A4F10A0000EBC8
:1032B0004001072000FA01F925EA0905A4F10A00F6
:1032C00000EB400008FA00F945EA0905F5600EE058
:1032D000356904EB4401072000FA01F925EA0905E4
:1032E00004EB440008FA00F945EA09053561072FA7
:1032F00011DA756B781E00EB80011F2000FA01F9CE
:1033000025EA0905781E00EB800004FA00F945EA79
:103310000905756326E00D2F11DA356BF81F00EBF8
:1033200080011F2000FA01F925EA0905F81F00EBCA
:10333000800004FA00F945EA0905356312E0F56AF0
:10334000A7F10D0000EB80011F2000FA01F925EA2A
:103350000905A7F10D0000EB800004FA00F945EA29
:103360000905F562BDE8F08700240140002801400E
:10337000003C01402E2E5C53544D333246313078A0
:103380005F5374645065726970685F4472697665F2
:10339000725C7372635C73746D3332663130785F64
:1033A0006164632E6300000010B50446094884423E
:1033B00005D00948844202D00848844200D104E084
:1033C0004FF4D27106A003F0CBF8A06840F00400DF
:1033D000A06010BD0024014000280140003C0140D5
:1033E0002E2E5C53544D3332463130785F53746423
:1033F0005065726970685F4472697665725C737259
:10340000635C73746D3332663130785F6164632E50
:103410006300000010B504460CB1012C00D104E09B
:1034200040F2924108A003F09BF834B113480068C1
:1034300040F400001149086005E01048006820F4DD
:1034400000000E49086010BD2E2E5C53544D3332DF
:10345000463130785F5374645065726970685F44B8
:1034600072697665725C7372635C73746D33326615
:103470003130785F6164632E6300000008240140EE
:103480002DE9F041012000210025694E3688DFF842
:10349000A0C1ACF1040CBCF800C046EA0C46DFF851
:1034A00094C196FBFCF80CFB186448F6A04694FB0C
:1034B000F6F6F6B246F03006DFF87CC18CF8006014
:1034C0004FF4616694FBF6F64FF00A0C96FBFCF89D
:1034D0000CFB1866F6B246F03006DFF85CC18CF8DB
:1034E00001604FF4616694FBF6FC06FB1C474FF449
:1034F000167697FBF6F6F6B246F03006DFF838C1DE
:103500008CF803603C2697FBF6F64FF00A0C96FB0E
:10351000FCF80CFB1866F6B246F03006DFF818C16E
:103520008CF80460424E3688DFF804C1ACF1040C1C
:10353000BCF800C046EA0C46DFF8F8C096FBFCF683
:1035400030440FE0A0F5B770491C002207E0B0F549
:10355000B77F00DA05E0A0F26D10491C521C032A67
:10356000F5DB00BFB0F5B77FECDA4FEAE17C01EBA9
:103570009C7C4FEAAC0CB1EB8C0C01D0002300E03A
:10358000012300220AE06D1C03EB830606EBC30651
:10359000DFF8A8C06644B65C801B521C03EB8306B0
:1035A00006EBC306DFF894C06644B65C8642EADBED
:1035B0000A2691FBF6F6F6B246F0300C1E4E86F85F
:1035C00010C00A2691FBF6FC06FB1C16F6B246F06C
:1035D000300C194E86F811C00A2695FBF6F6F6B2A5
:1035E00046F0300C144E86F80BC00A2695FBF6FC0C
:1035F00006FB1C56F6B246F0300C0F4E86F80CC097
:103600000A2690FBF6F6F6B246F03006DFF828C040
:103610008CF808600A2690FBF6FC06FB1C06F6B246
:1036200046F0300C044E86F809C0BDE8F081000079
:10363000086C00408051010036010020D8000020B5
:1036400070B58A4800F07EFE89480088C4B2884878
:1036500008300088C5B264208549083108800A20F6
:103660008349088000F05EFC082082490860002140
:10367000814801F01DFC4021804801F019FC804880
:10368000007880010E30C1B27F2001F0C9FB00BF7D
:1036900000BF7848006810F0040F0AD1744814384D
:1036A000008810F0020F04D17248006810F0080F73
:1036B000EFD06F481438008810F0020F2DD06C48FE
:1036C00000880A280EDD4E217F2001F0A9FB0E2183
:1036D000202001F0A5FB0A206549088001206849E7
:1036E000087011E0624800880A280DDA0E217F2058
:1036F00001F096FB4E21202001F092FB0A205C494C
:10370000088000205E49087059481438008820F06D
:103710000200574914390880BAE75648006810F08B
:10372000080F4AD056480078A8BB00F0FBFB55486C
:10373000007888BB4FF08040008B20F004004FF0F1
:10374000804108830846808920F0020088814E4825
:10375000007800EB80004FF47A71A1EB4000C906BD
:1037600088854948007800EB800040F2CA31A1EB1F
:103770004000490708870846008C40F01100088483
:1037800000203B49088001203E49087000213F4845
:1037900001F08EFB58E010E0FFE74FF08040008C16
:1037A00020F011004FF08041088400203549087056
:1037B0000021374801F07CFB46E02E48006810F0FD
:1037C000080F41D02E48007801283DD100F0AAFB17
:1037D0002C48007800BB4FF08040008B40F0040084
:1037E0004FF0804108830846808940F002008881BC
:1037F0002D2088850F2008870846008C40F0110096
:10380000088400201A49088001201E490870002100
:103810001E4801F04DFB17E04FF08040008C20F077
:1038200011004FF0804108840846808920F0020092
:1038300088810020174908601749087011490870ED
:103840000021134801F034FB084800F07BFD0848D4
:1038500004800748083005800820064908600F48A2
:103860000F49086000F05EFB70BD0000E0930400AB
:10387000240400401404014087000020940000202C
:103880000D000020F70000200E000020B9000020ED
:10389000C800002010000020F800002000020020D6
:1038A00080E200E010B5012000F032FA00F030F9BB
:1038B00000200149087010BD0A00002070B588483A
:1038C000807808287ED2DFE800F0FF045A5BFF8989
:1038D0009AEA4FF46070834908600620087103205B
:1038E00048718148407800F00F007F49097801F065
:1038F0000F0101EB810100EB4100C1B279488171F8
:103900007948007900F00F007749C97801F00F017C
:1039100001EB810100EB4100C1B27248C1717248F4
:10392000407A00F00F007049097A01F00F0101EBB5
:10393000810100EB4100C1B26A4801726A48007B14
:1039400000F00F016848C07A00F00F0000EB800023
:1039500001EB4000C1B2634841726348407C00F013
:103960000F016148007C00F00F0000EB800001EBCC
:103970004000C1B25B48817200F06CFAA5E0A4E09F
:1039800040F2823057490860032048715748017857
:1039900054488171564801785248C17155480178A0
:1039A00050480172544801784E48417253480068AB
:1039B000010E4C48017351480068010C4948C1721E
:1039C0004E4800E080E00068C1B24648817208209D
:1039D00044490871084600F03DFA76E04FF0804017
:1039E000008C40F010004FF0804108840846008CA5
:1039F00040F00100088401203F49087065E0384824
:103A000040793A4908700846007810B34FF080407A
:103A1000008B40F004004FF0804108830846808905
:103A200040F00200888123208885052008872C48E3
:103A3000C07930490870087800EBD0714C102046EE
:103A400003F0EEF805462E4903F028F82D490860EA
:103A500024E023488079264908704FF08040008B8D
:103A600020F004004FF0804108830846808920F050
:103A7000020088811E48007800EB80004FF47A71C4
:103A8000A1EB4000C90688851948007800EB80004A
:103A900040F2CA31A1EB40004907088715E04FF01A
:103AA0008040008C20F010004FF0804108840846D0
:103AB000008C20F00100088400201349087013498D
:103AC00008600D49087000E000BF00BF0B48001FF0
:103AD000006840F002000949091F086070BD00003D
:103AE000B4010020A4010020240100200D000020CA
:103AF0000E0000200F000020F70000201864004096
:103B00000000484214000020F800002010000020AF
:103B100030B57648807B042804D0062845D00B2891
:103B200077D1CDE0002072490860724908606F4883
:103B3000007C08606D48407C096841EA00206D49BE
:103B400008606A48807C096841EA00406949086069
:103B50006648C07C096841EA00606649086000F078
:103B6000B3FC64490868C11700EB9151C1F3872485
:103B700060490868C11700EB91518912B0EB8121AF
:103B800001D0601CC4B221465B4800F029FC40F221
:103B900072305A4908600220087103204871672179
:103BA0005648817100F056F997E052480068504934
:103BB0000968401A082832D34D4800684E4A8118D7
:103BC00008224A48103000F047FC49480068083095
:103BD0004749086040F27230484908600220087185
:103BE0000320487167214548817100F033F940484E
:103BF0000068F021B0FBF1F201FB120030BB40483D
:103C0000806810F4007F05D04FF000703C490861D7
:103C10001CE061E04FF400703949086116E0354856
:103C20000068334B1B68C21A31480068324BC11818
:103C30002E48103000F010FC2E4800682C4909680E
:103C4000401A2B4909680844294908602948006836
:103C500027490968884232D126480068011F264852
:103C600002F0CAFD0546234800682349084450F87D
:103C7000040CA84210D140F27230204908600220A2
:103C800008710320487163211C48817100F0E2F83B
:103C900001201C49087012E01B48006940F08000B8
:103CA0001949086140F27230144908600220087115
:103CB0000320487165211148817100F0CBF80CE0B8
:103CC0004FF462700D4908600120087103204871AB
:103CD000084600F0BFF800E000BF00BF0B480068D6
:103CE00040F010000949086030BD0000B401002018
:103CF0001C0100202001002000000108A401002078
:103D0000001001401801002000200240146400400F
:103D10004D4901EB0011096801F0020102295AD056
:103D2000494901EB0011896800EB4002474B03EB66
:103D300082021171444901EB001189680A0A00EB03
:103D4000400103EB81014A713F4901EB0011896891
:103D50000A0C00EB400103EB81018A713A4901EB47
:103D600000118968090E00EB400203EB8202D17159
:103D7000354901EB0011C968CAB200EB400103EB01
:103D800081010A72304901EB0011C9680A0A00EB8F
:103D9000400103EB81014A722B4901EB0011C96814
:103DA0000A0C00EB400103EB81018A72264901EB0A
:103DB0000011C968090E00EB400203EB8202D172C8
:103DC000214901EB0011496801F00F0100EB4002AD
:103DD00003EB8202D1701C4901EB0011096840F22B
:103DE000FF7202EA515100EB4002184B23F82210F7
:103DF000154901EB00114968090A00EB400203EB89
:103E00008202917030B11249096821F01001104A04
:103E1000116005E00E49096821F002010C4A1160A9
:103E200040B10B49091F096841F02001084A121FDF
:103E3000116007E006490839096841F02001044A89
:103E4000083A116070470000B0650040B4010020DE
:103E50001464004010B5024600233048006800F0AA
:103E60008060B0F1806F01D1002113E02B48006821
:103E700000F00060B0F1006F01D101210AE0274895
:103E8000006800F08050B0F1805F01D1022101E0B4
:103E9000022010BD10884405214800EB0110046089
:103EA0001F4800EB0110406820F00F041C4800EB95
:103EB000011044601A4800EB011040681479204357
:103EC000174C04EB01146060107A0406D07944EAC0
:103ED0000044907944EA0020547940EA04031048F1
:103EE00000EB01108360107B0406D07A44EA0044A2
:103EF000907A44EA0020547A40EA0403084800EB30
:103F00000110C360064800EB0110006840F0010496
:103F1000034800EB011004600020BAE70864004089
:103F20008065004000B54FF080600C490861C01307
:103F300008614FF070600A490860C80507490861C8
:103F400000140861074806490860C0040349086175
:103F50004FF4C86000F0F6F900BD00000010014009
:103F6000100C01400001000E00B503464FF08060C8
:103F70000C490861C01308614FF070600A4908607D
:103F8000C80508490861001408614FF4706098433F
:103F900005490860C80503490861282000F0D2F9E6
:103FA00000BD000000100140100C014070B5044637
:103FB0000D46244884422AD022481430844226D018
:103FC00020482830844222D01E483C3084421ED0F3
:103FD0001C48503084421AD01A486430844216D0AB
:103FE00018487830844212D0174884420FD01648BF
:103FF000143084420BD014482830844207D0124831
:104000003C30844203D010485030844200D104E058
:1040100040F229110DA002F0A3FA0DB1012D00D13B
:1040200004E04FF4957109A002F09AFA25B12068D6
:1040300040F00100206004E020684FF6FE71084067
:10404000206070BD08000240080402402E2E5C5320
:10405000544D3332463130785F5374645065726921
:1040600070685F4472697665725C7372635C7374C6
:104070006D3332663130785F646D612E630000000D
:1040800070B505460C4600265E4885422AD05D483C
:104090001430854226D05B482830854222D05948CA
:1040A0003C3085421ED05748503085421AD0554882
:1040B0006430854216D053487830854212D0524839
:1040C00085420FD05048143085420BD04E482830DE
:1040D000854207D04C483C30854203D04A48503096
:1040E000854200D103E0CF2148A002F039FAA06850
:1040F000102801D0A06800B903E0D02143A002F04D
:104100002FFAE06820B1E068B0F5803F00D203E00C
:10411000D1213EA002F024FA2069402801D0206974
:1041200000B903E0D22139A002F01AFA60698028B0
:1041300001D0606900B903E0D32134A002F010FA85
:10414000A06938B1A069B0F5807F03D0A069B0F54F
:10415000007F00D103E0D4212CA002F001FAE06935
:1041600038B1E069B0F5806F03D0E069B0F5006F59
:1041700000D103E0D52125A002F0F2F9206A202821
:1041800001D0206A00B903E0D62120A002F0E8F9AE
:10419000606AB0F5405F09D0606AB0F5005F05D095
:1041A000606AB0F5805F01D0606A00B903E0D72192
:1041B00016A002F0D5F9A06AB0F5804F01D0A06A30
:1041C00000B903E0D82111A002F0CAF92E6847F621
:1041D000F0708643216AA068084321690843616939
:1041E0000843A1690843E1690843616A0843A16A79
:1041F000084306432E60E06868602068A860606835
:10420000E86070BD08000240080402402E2E5C5396
:10421000544D3332463130785F537464506572695F
:1042200070685F4472697665725C7372635C737404
:104230006D3332663130785F646D612E630000004B
:1042400070B50120002100243A4D2D88394E361FCB
:10425000368845EA0645384E95FBF6F528440FE0CA
:10426000A0F5B770491C002207E0B0F5B77F00DA6F
:1042700005E0A0F26D10491C521C032AF5DB00BFBB
:10428000B0F5B77FECDACE1701EB9676B610B1EB4E
:10429000860601D0002300E00123002209E0641C0F
:1042A00003EB830505EBC305244E3544AD5C401B91
:1042B000521C03EB830505EBC305204E3544AD5C72
:1042C0008542ECDB0A2591FBF5F5EDB245F03006B1
:1042D0001B4D2E740A2591FBF5F605FB1615EDB264
:1042E00045F03006164D6E740A2594FBF5F5EDB2D7
:1042F00045F03006124DEE720A2594FBF5F605FBEB
:104300001645EDB245F030060D4D2E730A2590FB93
:10431000F5F5EDB245F03005094E35720A2590FBF2
:10432000F5F605FB1605EDB245F03006044D6E724C
:1043300070BD00001C28004080510100D800002002
:104340002401002000EBC0014FF0E0225161002168
:10435000916100BF4FF0E021096911F4803FF9D06D
:104360007047000010B511480078012808D101F00D
:1043700075FC0F48006820F004000D49086005E056
:104380000B48006840F00400094908600948FFF73D
:10439000D9FF0648007808B9012000E00020034951
:1043A000087002200449086010BD0000F6000020DB
:1043B00010ED00E0E09304001404014010B505483E
:1043C000FFF7C0FF03200449087008200349086074
:1043D00010BD0000E0930400000000201404014020
:1043E00010B5024600BF1B4BDB6813F0010FFAD17A
:1043F000184BDB6813F0200F02D02023154CE3602C
:10440000144B1B6943F48053124C236123461B69F0
:1044100043F002032361002013E002EB80230D4CE4
:10442000636123461B6943F04003236100BF094BCE
:10443000DB6803F02003202BF9D1064CE360431C1A
:10444000D8B28842E9DB034B1B6923F00203014C1D
:10445000236110BD0020024030B5034600BF194C57
:10446000E46814F0010FFAD1164CE46814F0200F40
:1044700002D02024134DEC60124C246944F4805483
:10448000104D2C612C46246944F001042C6100205D
:104490000DE033F8104021F8104000BF094CE468EB
:1044A00004F02004202CF9D1064DEC60401CB0EB48
:1044B000520FEED3034C246924F00104014D2C610A
:1044C00030BD000000200240024803494860034814
:1044D000486070472301674500200240AB89EFCD5B
:1044E0002DE9F05F05460C464FF00009CA4600264C
:1044F0000027B046B3465948854211D058488542F6
:104500000ED0584885420BD05748854208D05748AE
:10451000854205D05648854202D05648854200D192
:1045200003E0B22154A002F01BF8E078A0B1E078DB
:10453000042811D0E07828280ED0E07848280BD045
:10454000E078142808D0E078102805D0E0781C28FE
:1045500002D0E078182800D103E0B32146A001F092
:10456000FFFF002010B9208800B103E0B42142A071
:1045700001F0F6FFE07800F00F09E07810F0100F7E
:1045800010D0A078012805D0A078022802D0A07809
:10459000032800D103E0BB2137A001F0E1FFA078A0
:1045A00040EA0909207838B3D5F8008000261FE0DA
:1045B000012000FA06F7208800EA070ABA4516D15A
:1045C000B7000F2000FA07FB28EA0B0809FA07F0EA
:1045D00040EA0808E078282803D10120B04068614B
:1045E00005E0E078482802D10120B0402861761C1F
:1045F000082EDDD3C5F800802088FF282BDDD5F8F4
:104600000480002623E006F10800012101FA00F7EA
:10461000208800EA070ABA4518D1B7000F2000FA2F
:1046200007FB28EA0B0809FA07F040EA0808E078D7
:10463000282803D106F1080081406961E078482804
:1046400004D106F10800012181402961761C082E61
:10465000D9D3C5F80480BDE8F09F000000080140F0
:10466000000C0140001001400014014000180140FE
:10467000001C0140002001402E2E5C53544D33326B
:10468000463130785F5374645065726970685F4476
:1046900072697665725C7372635C73746D333266D3
:1046A0003130785F6770696F2E63000010B5DB48AA
:1046B000C06940F0C050D949C861012000F012FB28
:1046C0004FF0E020006920F004004FF0E021086185
:1046D0000846006940F001000861D048006A00F017
:1046E0000200022856D0CD48006A40F48030CB4901
:1046F00008620846006A20F4803008620846006AB2
:1047000040F00100086200BFC448006A00F00200E7
:104710000228F9D1C148006A40F48070BF4908629C
:104720000846006A40F40040086200BFBC480088A8
:1047300000F020002028F9D1B948008840F010008E
:10474000B749088047F6FF70B5490831088041F63F
:10475000A620B3491C31088048F28020091D08803A
:10476000AF48008820F01000AD49088000BFAC4879
:10477000008800F020002028F9D1A948008820F006
:104780000800A749088000BFA548008800F008007D
:104790000828F9D1A248001F008840F00100A04974
:1047A000091F08800121402000F0FEFB9B48806922
:1047B00040F01D00994988610846C06940F0010039
:1047C000C8610846C06940F00200C8619548406869
:1047D00040F000709349486048209349C870022017
:1047E0008870012008809148FFF77AFE18208E49D2
:1047F000C8700220887008808C48FFF771FE48203E
:104800008949C87002208870C02008808748FFF757
:1048100067FE8748006841F2111108438449086027
:104820000846006844F24441884381490860814851
:10483000406841F2111108437E49486008464068CB
:1048400044F2444188437B4948600846006840F090
:10485000805008604FF4000008610E20764908601F
:10486000081F006840F40030091F086042F2202051
:104870006C4988600846406840F0040048606C4815
:10488000001F006840F080706949091F08600846F1
:10489000006840F0006008600846006820F0806012
:1048A000086047F2305065490880081D008842F2D0
:1048B000240108436149091D08804FF080400089A8
:1048C00040F056004FF0804108810846008B40F0D0
:1048D000010008830846008C40F002000884084666
:1048E000008B40F4F040088340F2CF200885084652
:1048F000008840F0880008805148008840F001009E
:104900004F4908804E481030008840F2011108439A
:104910004B4910310880C12049492431088048485A
:104920001830008840F0010045491831088044489B
:10493000001D008840F002004149091D08804048E0
:104940000838008840F001003D49083908803D489A
:10495000006840F001003B4908600846006820F00C
:10496000020008603848406840F00300364948605B
:104970000846406840F4205048603A203349887027
:1049800048712E2131488172417332218173302167
:10499000C1733A202E49887048712E212C488172AB
:1049A0004173322181733021C17325202949C87098
:1049B0002E2029498870032000F054F9032108466D
:1049C00000F068F9072000F04DF90321072000F0FE
:1049D00061F9092000F046F90321092000F05AF995
:1049E000122000F03FF90221122000F053F91C20A0
:1049F00000F038F902211C2000F04CF91D2000F0D5
:104A000031F903211D2000F045F90C2000F02AF9AE
:104A100001210C2000F03EF910BD00000010024002
:104A2000042800400000014006000020000801406A
:104A3000040C0140001001400C0401400838014002
:104A40000804004000700040002004E02401002021
:104A50003601002001000020F200002000B543F6DE
:104A60009820FFF76FFC4FF0806077490861C01312
:104A700008614FF44070754908600120FFF762FC3F
:104A80004FF000607049086141F20400FFF75AFCE2
:104A90004FF080606C490861C01308614FF44070AA
:104AA0006A4908600120FFF74DFC4FF0006066493D
:104AB00008616420FFF746FC4FF08060624908619E
:104AC000C01308614FF44070604908600120FFF78F
:104AD00039FC4FF000605C4908612820FFF732FC88
:104AE0004FF0806058490861C01308618010574931
:104AF00008600120FFF726FC4FF000605249086172
:104B00002820FFF71FFC4FF080604F490861C01359
:104B100008614F484D4908600120FFF713FC4FF032
:104B2000006049490861001408614A484749086023
:104B30000120FFF707FC4FF000604349086128207F
:104B4000FFF700FC4FF080603F490861C013086127
:104B50004FF070603D4908600120FFF7F3FB4FF014
:104B6000006039490861001408613A483749086013
:104B70000120FFF7E7FB4FF0006033490861282070
:104B8000FFF7E0FB4FF080602F490861C013086118
:104B90004FF070602D4908600120FFF7D3FB4FF004
:104BA000006029490861001408612B482749086002
:104BB0000120FFF7C7FB4FF000602349086140F276
:104BC000A460FFF7BFFB4FF080601F490861C0136E
:104BD00008614FF070601D4908600120FFF7B2FBCB
:104BE0004FF0006018490861001408611B4817491C
:104BF00008600120FFF7A6FB4FF000601249086132
:104C00002820FFF79FFB4FF080600F490861C01319
:104C100008614FF070600D4908600120FFF792FBBA
:104C20004FF0006008490861001408610C4807490A
:104C300008600120FFF786FB4FF000600249086121
:104C40002820FFF77FFB00BD00100140100C014041
:104C50000002000D000800070001000E0006000918
:104C6000000C000300F01F020121914042094FF0A7
:104C7000E02303EB8202C2F80011704700F01F022C
:104C80000121914042094FF0E02303EB8202C2F878
:104C90000011704710B5002807DA0A07140E054AFC
:104CA00000F00F031B1FD45403E00A07130E024A3F
:104CB000135410BD18ED00E000E400E010B500282A
:104CC00007DA0A07140E054A00F00F031B1FD4541D
:104CD00003E00A07130E024A135410BD18ED00E05A
:104CE00000E400E010B504460CB1012C00D103E053
:104CF0007F2103A001F034FC0E48046210BD0000C7
:104D00002E2E5C53544D3332463130785F537464E9
:104D10005065726970685F4472697665725C73721F
:104D2000635C73746D3332663130785F7077722EE6
:104D30006300000000000E4270B503460C461546A5
:104D40004FF0806023490861C013086144F080007F
:104D50000001214908604FF000601E4908610014FD
:104D6000086120021C4908604FF000601949086181
:104D70002820FFF7E7FA002629E01648006940F4EA
:104D80008060144908610846006940F400600861C9
:104D900018780001104908600E48006940F0006072
:104DA0000C4908610846006940F400600861187801
:104DB0000002094908600748006940F000600549A1
:104DC00008612820FFF7BEFA5B1C701CC6B2AE4219
:104DD000D3DB70BD001001400C0C014000B5034650
:104DE0004FF480600C4908614000086118780001A8
:104DF0000A4908604FF00060074908610014086123
:104E000018780002054908604FF000600249086107
:104E10002820FFF797FA00BD001001400C0C01405C
:104E200010B503460C464FF080601F490861C0135F
:104E3000086144F0800000011C4908604FF00060E8
:104E400019490861001408612002184908604FF0F0
:104E50000060154908612820FFF774FA12480069BC
:104E600040F48060104908610846006940F4006021
:104E7000086118010D4908600B48006940F00060A6
:104E8000094908610846006940F400600861180299
:104E9000064908600448006940F000600249086162
:104EA0002820FFF74FFA10BD001001400C0C014004
:104EB00030B503460D464FF080601E490861C013AF
:104EC000086145F0800000011B4908604FF0006058
:104ED00018490861001408612802174908604FF05A
:104EE0000060144908612820FFF72CFA00241CE018
:104EF0004FF480600F49086140000861185D0001AF
:104F00000D4908604FF000600A490861001408610B
:104F1000185D0002084908604FF00060054908610B
:104F20002820FFF70FFA601CC4B2185D0028DFD1FB
:104F300030BD0000001001400C0C014070B504466B
:104F4000002544B1B4F5804F05D0B4F5004F02D030
:104F5000B4F5404F00D104E040F2023104A001F06A
:104F6000FFFA1048456825F440452543456070BD6B
:104F70002E2E5C53544D3332463130785F53746477
:104F80005065726970685F4472697665725C7372AD
:104F9000635C73746D3332663130785F7263632E95
:104FA000630000000010024070B504460D4640F258
:104FB000575034EA000001D104B104E040F22B4123
:104FC0000CA001F0CDFA0DB1012D00D104E040F2AA
:104FD0002C4108A001F0C4FA2DB1134840692043C8
:104FE0001149486104E010484069A0430E494861F6
:104FF00070BD00002E2E5C53544D33324631307854
:105000005F5374645065726970685F447269766555
:10501000725C7372635C73746D3332663130785FC7
:105020007263632E630000000010024070B50446F6
:105030000D461048044201D104B104E040F2694138
:105040000DA001F08DFA0DB1012D00D104E040F268
:105050006A4109A001F084FA2DB11448C0692043C7
:105060001249C86104E01148C069A0430F49C861F2
:1050700070BD0000003601812E2E5C53544D33323A
:10508000463130785F5374645065726970685F446C
:1050900072697665725C7372635C73746D333266C9
:1050A0003130785F7263632E6300000000100240AD
:1050B00070B504460D461048044201D104B104E025
:1050C00040F24A410DA001F04BFA0DB1012D00D183
:1050D00004E040F24B4109A001F042FA2DB114481E
:1050E000806920431249886104E011488069A04327
:1050F0000F49886170BD00000200C0FF2E2E5C5376
:10510000544D3332463130785F5374645065726960
:1051100070685F4472697665725C7372635C737405
:105120006D3332663130785F7263632E6300000046
:10513000001002404FF40030014908607047000041
:105140001404014070B5404800883F49091F098890
:1051500040EA01443D4894FBF0F100FB11440CB9D6
:10516000FFF76EF84FF4616094FBF0F00A2190FBBA
:10517000F1F0C0B240F03000354908704FF4616082
:1051800094FBF0F00A2190FBF1F201FB1200C0B297
:1051900040F030002E4948704FF4616094FBF0F10C
:1051A00000FB11453C2095FBF0F00A2190FBF1F04B
:1051B000C0B240F030002649C8703C2095FBF0F0AA
:1051C0000A2190FBF1F201FB1200C0B240F0300066
:1051D0001F4908713C2095FBF0F100FB11500A219A
:1051E00090FBF1F0C0B240F03000194988713C20CA
:1051F00095FBF0F100FB11500A2190FBF1F201FB4D
:105200001200C0B240F030001149C8710E48183881
:10521000008820F001000C49183908800D480078FA
:10522000401C0C490870084600781E280ADD002042
:1052300008700120084908700848006840F0040020
:105240000649086070BD00001C2800408051010024
:10525000240100200A000020F600002010ED00E0EC
:105260002DE9FC5F00250027A9460026F6480088A6
:1052700000F0FF0BF44808300088C0B20090132003
:10528000F14908310880FEF74DFEF048FEF76CFE4C
:1052900005220621EE48FFF74FFD0A224621EC4881
:1052A0000830FFF749FD062000F062FCE948FFF7EF
:1052B00049F80820E8490860002487E0E448005DD8
:1052C0000190E348005D30384FF6FF7101EA40007D
:1052D000DD49088000BF00BFDF48006810F0040F00
:1052E0000AD1D9481438008810F0020F04D1DA48E6
:1052F000006810F0080FEFD0D748006810F0080FD2
:1053000009D0D648FFF71EF8D54800F053FC082016
:10531000D149086028E0CC481438008810F0020F0A
:105320001CD04FF47A70FFF70DF8C749088800EBDE
:10533000D071C1F3470141F03001019101A8FFF79D
:105340004DFD4FF0FF3000F035FCBF4814380088A9
:1053500020F00200BC4914390880BCE7BE48006850
:1053600010F0040F00D034E044B99DF80400303848
:1053700040F26541484305EB401525E0012C0ED174
:105380009DF804003038C0EB4011C1EB002005EB64
:105390000015B34800F00EFC601CC4B214E0032CEE
:1053A00009D19DF804003038C0EB001000EB8000FC
:1053B00005EBC00508E0042C06D19DF80400303848
:1053C000C0EB001005EB8005601CC4B2052CFFF695
:1053D00075AF00BF462000F0CBFB0024A2E09C4844
:1053E0000830005D01909A480830005D30384FF673
:1053F000FF7101EA40009449088000BF00BF964851
:10540000006810F0040F0AD18F481438008810F09B
:10541000020F04D19048006810F0080FEFD08E48BA
:10542000006810F0080F09D08C48FEF78BFF8C48FD
:1054300000F0C0FB08208849086028E08248143842
:10544000008810F0020F1CD04FF47A70FEF77AFF3C
:105450007D49088800EBD071C1F3470141F030016C
:10546000019101A8FFF7BAFC4FF0FF3000F0A2FB5A
:1054700075481438008820F00200734914390880F8
:10548000BCE77548006810F0040F00D04DE044B947
:105490009DF80400303800EB800007EB400087B235
:1054A0003EE0012C0AD19DF804003038384487B220
:1054B0006B4800F07FFB601CC4B231E0032C09D1C3
:1054C0009DF80400303800EB800009EB400000F04C
:1054D000FF0925E0042C11D19DF804003038484420
:1054E00000F0FF095E4800F065FB5D4800F062FBDC
:1054F0005B4800F05FFBE01CC4B211E0082C08D14F
:105500009DF80400303800EB800006EB4000C6B286
:1055100006E0092C04D19DF8040030383044C6B2AE
:10552000601CC4B20A2CFFF65AAF00BFF11706EB9D
:1055300091718910B6EB810102D04FF0000A01E0B1
:105540004FF0010A00240AE00AEB8A0000EBCA00CF
:1055500044490844005D384487B2601CC4B24C45DD
:10556000F2DB13E007F5B77087B2701EC6B20024F5
:1055700009E0002E00DC08E007F26D1087B2701E13
:10558000C6B2601CC4B2032CF3DB00BF002EE9DC02
:10559000354800883449091F098840EA014815B98F
:1055A0000FB945461CE047B93048B8FBF0F040F26F
:1055B000A321484305EBC01512E05DB92B48B8FBA9
:1055C000F0F100FB1181781E40F2A322504301EB61
:1055D000C01505E0781E40F2A321484305EBC01535
:1055E0002348008840F010002149088020492031DC
:1055F0000D801D490D80280C1D491C310880280C88
:105600001949091F08801A48008820F0100018491D
:10561000088000BF1648008800F020002028F9D13B
:10562000FDF72EFF1348FEF79FFC1348FEF78AFE96
:10563000FEF778FC0448A0F800B003490831009850
:105640000880BDE8FC9F0000240400400001000E1B
:105650003601002040420F001404014020A1070041
:10566000000B0004D8000020086C004080510100AD
:10567000042800400003000C400D030010B500F0AA
:1056800001F810BD0CB50020019000903248006870
:1056900040F480303049086000BF2F48006800F4B3
:1056A000003000900198401C0190009818B90198B2
:1056B000B0F5A06FF1D12848006810F4003F02D087
:1056C0000120009001E0002000900098012842D1C4
:1056D0002248006840F01000204908600846006831
:1056E00020F0030008600846006840F002000860EF
:1056F00019484068184948600846406848600846AC
:10570000406840F4806048600846406820F47C109F
:1057100048600846406840F4E81048600846006861
:1057200040F08070086000BF0B48006810F0007FF8
:10573000FAD00948406820F003000749486008464D
:10574000406840F00200486000BF0348406800F035
:105750000C000828F9D10CBD0010024000200240C6
:105760002DE9FC5F00250027A9460026F4480088A3
:1057700000F0FF0BF24808300088C0B20090132000
:10578000EF4908310880FEF7CDFBEE48FEF7ECFB51
:1057900005220621EC48FFF7CFFA0A224621EA4803
:1057A0000830FFF7C9FA062000F0E2F9E748FEF7F3
:1057B000C9FD0820E6490860002487E0E248005D52
:1057C0000190E148005D30384FF6FF7101EA40007A
:1057D000DB49088000BF00BFDD48006810F0040FFF
:1057E0000AD1D7481438008810F0020F04D1D848E5
:1057F000006810F0080FEFD0D548006810F0080FCF
:1058000009D0D448FEF79EFDD34800F0D3F9082014
:10581000CF49086028E0CA481438008810F0020F09
:105820001CD04FF47A70FEF78DFDC549088800EB57
:10583000D071C1F3470141F03001019101A8FFF798
:10584000CDFA4FF0FF3000F0B5F9BD4814380088AC
:1058500020F00200BA4914390880BCE7BC4800684F
:1058600010F0040F00D034E044B99DF80400303843
:1058700040F26541484305EB401525E0012C0ED16F
:105880009DF804003038C0EB4011C1EB002005EB5F
:105890000015B14800F08EF9601CC4B214E0032C6E
:1058A00009D19DF804003038C0EB001000EB8000F7
:1058B00005EBC00508E0042C06D19DF80400303843
:1058C000C0EB001005EB8005601CC4B2052CFFF690
:1058D00075AF00BF462000F04BF90024A2E09A48C3
:1058E0000830005D019098480830005D30384FF670
:1058F000FF7101EA40009249088000BF00BF944850
:10590000006810F0040F0AD18D481438008810F098
:10591000020F04D18E48006810F0080FEFD08C48B9
:10592000006810F0080F09D08A48FEF70BFD8A487E
:1059300000F040F908208649086028E080481438C3
:10594000008810F0020F1CD04FF47A70FEF7FAFCBA
:105950007B49088800EBD071C1F3470141F0300169
:10596000019101A8FFF73AFA4FF0FF3000F022F959
:1059700073481438008820F00200714914390880F7
:10598000BCE77348006810F0040F00D04DE044B944
:105990009DF80400303800EB800007EB400087B230
:1059A0003EE0012C0AD19DF804003038384487B21B
:1059B000694800F0FFF8601CC4B231E0032C09D143
:1059C0009DF80400303800EB800009EB400000F047
:1059D000FF0925E0042C11D19DF80400303848441B
:1059E00000F0FF095C4800F0E5F85B4800F0E2F8E1
:1059F000594800F0DFF8E01CC4B211E0082C08D1CF
:105A00009DF80400303800EB800006EB4000C6B281
:105A100006E0092C04D19DF8040030383044C6B2A9
:105A2000601CC4B20A2CFFF65AAF00BFF11706EB98
:105A300091718910B6EB810102D04FF0000A01E0AC
:105A40004FF0010A00240AE00AEB8A0000EBCA00CA
:105A500042490844005D384487B2601CC4B24C45DA
:105A6000F2DB13E007F5B77087B2701EC6B20024F0
:105A700009E0002E00DC08E007F26D1087B2701E0E
:105A8000C6B2601CC4B2032CF3DB00BF002EE9DCFD
:105A9000334800883249091F098840EA014815B98E
:105AA0000FB945461CE047B92E48B8FBF0F040F26C
:105AB000A321484305EBC01512E05DB92948B8FBA6
:105AC000F0F100FB1181781E40F2A322504301EB5C
:105AD000C01505E0781E40F2A321484305EBC01530
:105AE0001F481838008840F010001D4918390880F8
:105AF0001B490D80280C091F088019481838008898
:105B000020F0100016491839088000BF14481838D2
:105B1000008800F020002028F8D1FEF791FB124801
:105B2000FEF722FA1148FEF70DFCFEF7FBF90448D8
:105B3000A0F800B00249083100980880BDE8FC9F39
:105B4000240400400001000E2401002040420F0008
:105B50001404014020A10700000B0004D80000201D
:105B60001C280040805101000003000C400D030080
:105B700000B503464FF080600C490861C01308610E
:105B800043F0800000010A4908604FF000600749B7
:105B90000861001408611802054908604FF00060B0
:105BA000024908612820FEF7CDFB00BD001001402E
:105BB0000C0C014000B503464FF080600B490861B2
:105BC000C01308610A480B490860C004074908610E
:105BD000001408614FF00F20984306490860C8057B
:105BE000024908612820FEF7ADFB00BD001001400E
:105BF0000001000E100C014000B5FEF793F90521DD
:105C00001148FFF755F91148FEF79CFB4FF08070E3
:105C10000F49086080000F490861802008610E4824
:105C2000006820F00C000C49086020BF4FF4000011
:105C300008490861FEF712FF0748006840F00E00AF
:105C40000549086000BD0000A200002040420F008E
:105C5000100C0140001001400004014010B5124832
:105C6000006840F0010010490860084640680F498C
:105C700008400D494860084600680D4908400A4937
:105C800008600846006820F48020086008464068E4
:105C900020F4FE0048604FF41F008860FFF7EEFC20
:105CA00004480549086010BD001002400000FFF8DC
:105CB000FFFFF6FE0028000808ED00E010B54FF0E9
:105CC0008040008A20F002004FF080410882144892
:105CD00001681448006800F073FE124908604FF034
:105CE0007C511048006801F046F810D24FF0804017
:105CF000008C40F010004FF0804108844FF07E513E
:105D00000848006801F068F80649086007E04FF0AD
:105D10008040008C20F010004FF08041088410BDBE
:105D2000140000201000002070B5FEF7FBF8794841
:105D30000078002877D07848007820B1774800783C
:105D40007749088003E07748007875490880052185
:105D50007548FFF7ADF800BF71481438008840F26D
:105D6000022188436E49143908806B480078002866
:105D70004AD16B48008804B2C12C05DC962C03DDA7
:105D800000206749088006E0602C04DD962C02DACA
:105D900060206349088062480088624908700846AC
:105DA000007800EB80004FF47A71A1EB4000C90647
:105DB00088855C48007800EB800040F2CA31A1EB96
:105DC00040004907088757480078642190FBF1F0AC
:105DD000C0B240F0300055490870524800780A219E
:105DE00090FBF1F0C0B240F03000504948704D488F
:105DF00000780A2190FBF1F201FB1200C0B240F0E2
:105E000030004A4988704EE04348007801284AD162
:105E10004348008804B2C12C06DC962C04DD002027
:105E20003F49088007E05DE0642C04DD962C02DA2F
:105E300064203B4908803A48008838490870084681
:105E4000007800F005FF0546394900F027FE394982
:105E5000086032480078642190FBF1F0C0B240F055
:105E60003000324908702D480078642190FBF1F031
:105E700018B130202D49487009E0284800780A21DF
:105E800090FBF1F0C0B240F0300028494870234840
:105E900000780A2190FBF1F201FB1200C0B240F041
:105EA00030002249887004220C212048FEF744FF6C
:105EB00021484FF0E02148610020886100BF184868
:105EC0001438008810F0020F05D14FF0E02000696F
:105ED00010F4803FF3D012481438008810F0020FFD
:105EE00010D039E701211548FEF7E2FF0C481438BD
:105EF000008840F20221884309491439088010487B
:105F0000FEF720FA4FF000500E490860FEF70AF83D
:105F100070BD0000F70000200D0000200F000020E1
:105F2000240400400E000020810000200100002019
:105F30000000C8421400002040548900AB0000203B
:105F400040420F0080E200E070B504460D4627484D
:105F500084422FD0B4F1804F2CD02548844229D0E0
:105F60002448844226D02448844223D023488442B3
:105F700020D0234884421DD0224884421AD022488F
:105F8000844217D02148844214D02148844211D041
:105F9000204884420ED0204884420BD01F488442BF
:105FA00008D01F48844205D01E48844202D01E48B3
:105FB000844200D104E040F229311CA000F0D0FA64
:105FC0000DB1012D00D104E040F22A3117A000F0FC
:105FD000C7FA25B1208840F00100208004E0208825
:105FE0004FF6FE710840208070BD0000002C01407B
:105FF0000004004000080040000C00400010004079
:106000000014004000340140004C014000500140A9
:106010000054014000180040001C004000200040D7
:106020000040014000440140004801402E2E5C53D6
:10603000544D3332463130785F5374645065726921
:1060400070685F4472697665725C7372635C7374C6
:106050006D3332663130785F74696D2E63000000F5
:106060002DE9F04104460D4600270026B04645487C
:1060700084420ED0B4F1804F0BD04348844208D004
:106080004248844205D04248844202D0414884427A
:1060900000D104E04FF404713FA000F061FA2888B9
:1060A00070B1288810280BD02888202808D028888C
:1060B000302805D02888602802D02888702800D190
:1060C00004E040F2112134A000F04AFA688810B1CF
:1060D0006888012800D104E040F212212EA000F0CF
:1060E0003FFA288910B12889022800D104E040F243
:1060F000132129A000F034FA208C4EF6FF710840DD
:106100002084268CB4F80480A78B48F6FF700740E3
:106110004FF6FF40074028884FF6FF7101EA002044
:1061200007434DF6FF700640288901EA0030064318
:10613000688801EA003006431248844202D01548BC
:10614000844216D1A889B0F5807F01D0A88900B912
:1061500004E04FF40C7110A000F002FA4BF6FF704F
:1061600008EA0008A8894FF6FF7101EA801040EAAA
:106170000808A4F80480A783E888A4F840002684CF
:10618000BDE8F081002C0140000400400008004000
:10619000000C0040003401402E2E5C53544D33322D
:1061A000463130785F5374645065726970685F443B
:1061B00072697665725C7372635C73746D33326698
:1061C0003130785F74696D2E6300000070B504464D
:1061D0000D4600264A4884422FD0B4F1804F2CD07F
:1061E0004848844229D04848844226D047488442BF
:1061F00023D04748844220D0464884421DD0464898
:1062000084421AD04548844217D04548844214D06D
:106210004448844211D0444884420ED043488442CA
:106220000BD04348844208D04248844205D04248BB
:10623000844202D04148844200D103E0E72140A0DB
:1062400000F08EF9688858B16888102808D06888EE
:10625000202805D06888402802D06888602800D1AE
:1062600003E0E82136A000F07BF9E88838B1E8883F
:10627000B0F5807F03D0E888B0F5007F00D103E05F
:10628000E9212FA000F06CF926881D4884420ED029
:10629000214884420BD0B4F1804F08D01948844281
:1062A00005D01948844202D01848844204D14FF6E0
:1062B0008F700640688806431548844207D0154809
:1062C000844204D04FF6FF400640E888064326800B
:1062D000A888A08528882085094884420BD00E48CC
:1062E000844208D01348844205D01348844202D027
:1062F0001248844201D1287A20860120A08270BDF4
:10630000002C01400004004000080040000C004048
:10631000001000400014004000340140004C0140D7
:10632000005001400054014000180040001C004093
:10633000002000400040014000440140004801406E
:106340002E2E5C53544D3332463130785F53746493
:106350005065726970685F4472697665725C7372C9
:10636000635C73746D3332663130785F74696D2E9F
:106370006300000010B50020FDF7CAFCFDF79EFA8F
:1063800010BD000070B5002404206849086068480A
:106390006849086068480088C6B24FF00000674945
:1063A00008704FF00700644908804FF0000064490E
:1063B000088000BFFDF7B6FD6048047800250FE0B7
:1063C000042C00D10024032202EB8512D1B25D4AD5
:1063D00052F82400FEF76CFD601CC4B2681CC5B204
:1063E00056480078801CA04201DD022DE8DB0F2119
:1063F0007F20FEF715FD00BF4C48006810F0040F29
:106400000AD14F481438008810F0020F04D14748D1
:10641000006810F0080FEFD049481438008810F0D9
:10642000020F10D046481438008820F0020044497A
:10643000143908804249088800EBD071C1F3470144
:106440003E4A1170B6E73948006810F0080F0DD0C9
:106450003A48007850B9FFF783F93448006810F0E3
:10646000040F45D0042031490860A3E72F48006895
:1064700010F0080F0ED03148007801280AD1FEF73D
:10648000EFFE2A48006810F0040F31D0042027499D
:1064900008608FE72548006810F0080F0ED02748E5
:1064A000007802280AD1FDF7CBF82048006810F0E8
:1064B000040F1DD004201D4908607BE71B480068BD
:1064C00010F0080F0ED01D48007803280AD1FCF701
:1064D000B1FA1648006810F0040F09D004201349DF
:1064E000086067E71848FDF72DFF04200F49086092
:1064F0000020164908700E48154908604FF0E02149
:10650000C1F800011348007830B1134800780C49F5
:1065100008800948068005E010480078084908808E
:1065200005480680FDF7FEFC70BD00001404014024
:106530008002002080E100E02C04004018000020D0
:106540002404004054000020E093040000000020D8
:1065500080E200E00D0000200F0000200E0000206F
:1065600000BFFEE708B58F48C06940F000708D4954
:10657000C86118208DF8030002208DF80200C002C7
:10658000ADF8000069468848FDF7AAFF48208DF85D
:1065900003004FF40060ADF8000069468248FDF743
:1065A0009FFF8248006840F020008049086008464C
:1065B000006840F02000086001211420FEF77EFBF7
:1065C00001211520FEF77AFB78481038006820F08A
:1065D00002007649103908600846006840F0010062
:1065E000086000BF71480C38006810F0010FF9D046
:1065F0006E481038006840F480306C4910390860EB
:106600000846006840F0400008600846006820F036
:10661000800008600846006820F0200008600846F6
:10662000006820F0100008600846006820F00800AC
:1066300008600846006840F0040008605B480C30C1
:10664000006820F0804059490C3108600846006815
:1066500020F0004008600846006840F0170008601D
:106660000846006840F0807008600846006820F422
:10667000702008600846006840F4E0200860084682
:10668000006820F4E00008600846006840F400104C
:1066900008604748006840F0010045490860081D4F
:1066A000006840F00700091D086041480C30006890
:1066B00020F007003E490C3108603D481430006866
:1066C00020F007003A49143108603948001D00687D
:1066D00040F038003649091D086035480C30006824
:1066E00020F0380032490C3108603148143000681D
:1066F00040F038002E49143108602E482C494031B2
:1067000008602D492D4801602D4900F10400016009
:106710002C4900F1040001602B4900F104000160E4
:106720002A4900F104000160294900F104000160D8
:10673000284900F104000160274900F104000160CC
:10674000264900F104000160254900F104000160C0
:10675000244900F1040001602348006840F03F0034
:10676000214908601248006820F0010010490860C3
:106770001E48006840F012001C4908601C48006870
:1067800020F001001A49086000BF1A48006810F0A4
:10679000010FFAD11420FEF771FA1520FEF76EFAF8
:1067A00008BD0000001002400008014010640040D5
:1067B0000066004000901010209050104466004089
:1067C000409050906090709080909090A090B09089
:1067D000C090D090E090F090208E308E608E708EC1
:1067E000E010F010001110111C660040146400400D
:1067F000006400400464004010B502460B464FF0B0
:10680000FF3108E012F8010B4840C0B2054C54F8C3
:10681000200080EA11211800A3F10103F2D1C8433E
:1068200010BD0000C46E000808B5A7200090FDF759
:106830003DFFFCF7BDF9FEF711F9FDF701FDFCF78F
:106840001FFEFFF78FFE4C48406840F001004A49A8
:1068500048600846406840F00200486047484849A0
:10686000086087E04748484908604FF008024FF049
:1068700000014648FEF760FA454800884449091F70
:10688000098840EA014043490988424A121F128898
:1068900041EA0241884204DB0F21EB20FEF7C0FAF7
:1068A00003E00F212020FEF7BBFA0A2240213748DF
:1068B0000830FEF741FA3848007860B13748007870
:1068C00020B14F214220FEF7ABFA08E04F215020C3
:1068D000FEF7A6FA03E04F212020FEF7A1FA29488F
:1068E0002F4908602F480078012801D1FFF784F96B
:1068F0002D480078032801D1FFF744FD2B4800788C
:10690000B8B300240AE0A01C84B2B4F5006F05DB24
:10691000002402212648FDF763FD05E02448205AA3
:10692000A0F57F41FF39EED100BF21482118022296
:106930006846FDF791FD1F484FF0E02148610020B7
:10694000886100BF4FF0E020006910F4803FF9D06B
:1069500000BFBFF34F8F1848006800F4E06017498C
:106960000843001D14490860BFF34F8F00BF00BFEC
:10697000FEE7FFE776E70000002004E00E000200DB
:10698000000401408002002080E100E0240100209A
:10699000086C00401C280040F70000200D0000207B
:1069A00000E100E0F60000200000002018010020B7
:1069B00000200008809698000CED00E00000FA0529
:1069C00090EA010F48BF81F0004100F10C82421AA9
:1069D0003CBF801A89184FEAD0524FF07F4C1CEA16
:1069E000410FA2EBD15318BF9CEA026F00F03B802D
:1069F0004FF0004C4CEA00204CEA012121FA03FC44
:106A000010EB0C0C1ED202F1FF325FEA1C2040EBAF
:106A1000C25038BF70471CF07F0F4FEA400C18BFC0
:106A2000BCF17F4F38BF7047C3F12003994008BFC6
:106A300020F00100BCF17F4F38BF7047A0F1C0408B
:106A400000F094B94FEA3C00000A40EBC25028BF66
:106A50001CF0FF0F4FEA400CE6D018BFBCF17F4F8F
:106A600038BF7047EAE79CEA026F05D010EA5C0F76
:106A700008BF00F00040704710B500F031F900BFCA
:106A800064FBBE3E401058BFC0F14040491058BFA3
:106A9000C1F140418142EFF3008070474FF47F0C19
:106AA0001CEAD0121EBF1CEAD11392EA0C0F93EA23
:106AB0000C0F00F0858090EA010F48BF42F480720D
:106AC00040F4000C41F400002CF07F4120F07F40A6
:106AD00000B58142A2EB03020FF2081CACEB504E52
:106AE000C0F100009EF800E04FEA4E0E00FB0EFCE5
:106AF00038BF49004FEA2C1C02F5FA020CFB0EF3DA
:106B00004FEACE1E4FEA112C4FEAC1210EEB635E15
:106B100042EB22420EFB0CFC4FEA1C5300FB03111C
:106B20004FEA112C4FEA01310EFB0CFC4FEADC4C12
:106B300000FB0C11C14228BF09184CEB03335DF870
:106B400004EB10EB410143EBC250B2F57C0F38BFB0
:106B5000704729D512F0F00F1CBF00F1C04000F0C3
:106B600000407047008182838485868788898B8C6A
:106B70008D8E8F919293959697999A9C9D9FA0A2A6
:106B8000A3A5A7A8AAACAEB0B2B3B5B7B9BCBEC0F6
:106B9000C2C5C7C9CCCED1D4D7D9DCDFE2E6E9EC97
:106BA000F0F3F7FAFE0000004FEA400C0CF1807C95
:106BB000BCF17E4F28BF7047B0F1C04000F0D6B89E
:106BC00090EA010F0CEAD11348BF42F4807262458B
:106BD00038BF634507D213F47F0F16D080EA010057
:106BE00000F00040704710B500F07AF8097EFC3ED6
:106BF00000F005B880EA010000F00040704780EA2C
:106C0000010000F0004000F0B1B812F47F0F04BFA3
:106C10000248704780EA010000F0A8B80000C07F79
:106C200010F0004148BF4042B0FA80F310FA03F27E
:106C3000C3F19D030BD051EAC35101EB122053065F
:106C400038BF704700F1010008BF20F00100704715
:106C5000B0FA80F310FA03F2C3F19D030AD0D9050C
:106C600001EB1220530638BF704700F1010008BF46
:106C700020F001007047000050EA010C00F1138081
:106C80001CF5000F58BFBCF5000F01D488427047B7
:106C900007D710F5000F58BF11F5000F15D4884223
:106CA0007047894270471CF5000F04D5BCF5000FF2
:106CB000F7D5814270474FF0807C1CEB400F38BF06
:106CC0001CEB410F01D28142704710B500F008F86B
:106CD000922449004FF000504FF08051FFF7D2BE90
:106CE0000EF1020E2EF0030E5EF8044B244204D483
:106CF0004FEA4102B2F17F4F11D84FEA4003B3F19E
:106D00007F4F0CD80ED14FEAD07CB2F17F4F0CEB05
:106D10004C0C0CF1020C08BF4CEBD17C04E04FF0A2
:106D2000080C01E04FEAD17C0CEB4C0324FA03F48D
:106D300004F00704B4F1040C06D20EEB840CBDE899
:106D400010404CF0010C6047DFE80CF0070802022D
:106D50004FF00040A0F5800010BD0846420018BF6B
:106D6000D2F1807288BF00F0004010BDFF2141EADF
:106D7000D050C005704751EA000C00F113801CF59B
:106D8000000F58BFBCF5000F01D48142704707D7F0
:106D900011F5000F58BF10F5000F15D48142704750
:106DA000894270471CF5000F04D5BCF5000FF7D5DC
:106DB000884270474FF0807C1CEB410F38BF1CEBC2
:106DC000400F01D28842704780EA010081EA000149
:106DD00080EA0100FFF779BF90EA010F48BF81F018
:106DE00000413FF5F4AD421A04D882F00042A0EB16
:106DF000020011444FEAD0524FF07F4C1CEA410F81
:106E0000A2EBD15318BF9CEA026F4AD04FF0004C5E
:106E10004CEA00204CEA012121FA03FCB0EB0C0CF7
:106E20000FD412F0FE0F36D05FEA4C001DD50012D1
:106E300040EBC25038BF70471CF03F0F18BF70477F
:106E40000BE0A2F101025FEA1C2040EBC25038BF08
:106E500070471CF07F0F18BF7047C3F120039940A3
:106E600014BF401E20F00100704780084FEA122333
:106E700008BF7047B0FA80FCA2EB0C02CCF1280CE2
:106E800060FA0CF093EA122F04BF00EBC250704777
:106E90004FEAC3707047130A5FEADC1008BF7047FF
:106EA000F6E79CEA026F04D010EA5C0F08BF0020EE
:106EB000704710B5FFF714FF40DFF63E81F0004049
:106EC0007047000000000000963007772C610EEE3E
:106ED000BA51099919C46D078FF46A7035A563E931
:106EE000A395649E3288DB0EA4B8DC791EE9D5E058
:106EF00088D9D2972B4CB609BD7CB17E072DB8E757
:106F0000911DBF906410B71DF220B06A4871B9F3AB
:106F1000DE41BE847DD4DA1AEBE4DD6D51B5D4F4E4
:106F2000C785D38356986C13C0A86B647AF962FD49
:106F3000ECC9658A4F5C0114D96C0663633D0FFA96
:106F4000F50D088DC8206E3B5E10694CE44160D59C
:106F5000727167A2D1E4033C47D4044BFD850DD286
:106F60006BB50AA5FAA8B5356C98B242D6C9BBDB99
:106F700040F9BCACE36CD832755CDF45CF0DD6DC94
:106F8000593DD1ABAC30D9263A00DE518051D7C83B
:106F90001661D0BFB5F4B42123C4B3569995BACFC6
:106FA0000FA5BDB89EB802280888055FB2D90CC6E7
:106FB00024E90BB1877C6F2F114C6858AB1D61C160
:106FC0003D2D66B69041DC760671DB01BC20D2987F
:106FD0002A10D5EF8985B1711FB5B606A5E4BF9F0C
:106FE00033D4B8E8A2C9077834F9000F8EA80996FF
:106FF00018980EE1BB0D6A7F2D3D6D08976C64916A
:10700000015C63E6F4516B6B62616C1CD830658582
:107010004E0062F2ED95066C7BA5011BC1F408825F
:1070200057C40FF5C6D9B06550E9B712EAB8BE8BA0
:107030007C88B9FCDF1DDD62492DDA15F37CD38C29
:10704000654CD4FB5861B24DCE51B53A7400BCA327
:10705000E230BBD441A5DF4AD795D83D6DC4D1A459
:10706000FBF4D6D36AE96943FCD96E34468867AD30
:10707000D0B860DA732D0444E51D03335F4C0AAACF
:10708000C97C0DDD3C710550AA41022710100BBED2
:1070900086200CC925B56857B3856F2009D466B919
:1070A0009FE461CE0EF9DE5E98C9D9292298D0B04E
:1070B000B4A8D7C7173DB359810DB42E3B5CBDB7FB
:1070C000AD6CBAC02083B8EDB6B3BF9A0CE2B6037C
:1070D0009AD2B1743947D5EAAF77D29D1526DB0431
:1070E0008316DC73120B63E3843B64943E6A6D0D7C
:1070F000A85A6A7A0BCF0EE49DFF099327AE000AC7
:10710000B19E077D44930FF0D2A3088768F2011E59
:10711000FEC206695D5762F7CB67658071366C19F0
:10712000E7066B6E761BD4FEE02BD3895A7ADA1011
:10713000CC4ADD676FDFB9F9F9EFBE8E43BEB717F2
:10714000D58EB060E8A3D6D67E93D1A1C4C2D8387C
:1071500052F2DF4FF167BBD16757BCA6DD06B53FE2
:107160004B36B248DA2B0DD84C1B0AAFF64A033621
:10717000607A0441C3EF60DF55DF67A8EF8E6E31A0
:1071800079BE69468CB361CB1A8366BCA0D26F25E9
:1071900036E2685295770CCC03470BBBB916022236
:1071A0002F260555BE3BBAC5280BBDB2925AB42B4B
:1071B000046AB35CA7FFD7C231CFD0B58B9ED92C60
:1071C0001DAEDE5BB0C2649B26F263EC9CA36A75C5
:1071D0000A936D02A906099C3F360EEB856707727C
:1071E00013570005824ABF95147AB8E2AE2BB17BE3
:1071F000381BB60C9B8ED2920DBED5E5B7EFDC7C6A
:1072000021DFDB0BD4D2D38642E2D4F1F8B3DD68C0
:107210006E83DA1FCD16BE815B26B9F6E177B06FBB
:107220007747B718E65A0888706A0FFFCA3B0666A8
:107230005C0B0111FF9E658F69AE62F8D3FF6B6135
:1072400045CF6C1678E20AA0EED20DD75483044ED7
:10725000C2B30339612667A7F71660D04D47694965
:10726000DB776E3E4A6AD1AEDC5AD6D9660BDF4078
:10727000F03BD83753AEBCA9C59EBBDE7FCFB2472B
:10728000E9FFB5301CF2BDBD8AC2BACA3093B35310
:10729000A6A3B4240536D0BA9306D7CD2957DE5419
:1072A000BF67D9232E7A66B3B84A61C4021B685DF2
:1072B000942B6F2A37BE0BB4A18E0CC31BDF055A6B
:1072C0008DEF022DE4720008000000202401000070
:1072D0002829000808740008240100200C07000079
:1072E0004429000800000000000000000000000029
:1072F000000000000000000000000000000000008E
:1073000002010020070100200C01002011010020D3
:107310005365742074696D650053657420616C61F8
:10732000726D0054494D206374726C0041444320D7
:1073300056696577000000002C0000203500002011
:107340003F0000204800002056696E203D20005478
:1073500063686970203D20004F53433332204661FB
:10736000696C656400506F776572004D6574686F75
:107370006420506861736500202020202020204276
:1073800072657A656E00476F6F64427965210054BB
:1073900075726E206F6E2054696D6572004D657454
:1073A000686F6420456E61626C6564004D65746849
:1073B0006F642044697361626C656400001F1C1F68
:1073C0001E1F1E1F1F1E1F1E1F001F1D1F1E1F1EF4
:1073D0001F1F1E1F1E1F00000000000000000000F5
:1073E000000000000000000000000000000000009D
:1073F000000000000000000000000000000000008D
:08740000000000000000000084
:04000005080028EDDA
:00000001FF
